{
  "contractName": "Deccert",
  "abi": [
    {
      "inputs": [],
      "stateMutability": "nonpayable",
      "type": "constructor"
    },
    {
      "anonymous": false,
      "inputs": [
        {
          "indexed": true,
          "internalType": "address",
          "name": "owner",
          "type": "address"
        },
        {
          "indexed": true,
          "internalType": "address",
          "name": "approved",
          "type": "address"
        },
        {
          "indexed": true,
          "internalType": "uint256",
          "name": "tokenId",
          "type": "uint256"
        }
      ],
      "name": "Approval",
      "type": "event"
    },
    {
      "anonymous": false,
      "inputs": [
        {
          "indexed": true,
          "internalType": "address",
          "name": "owner",
          "type": "address"
        },
        {
          "indexed": true,
          "internalType": "address",
          "name": "operator",
          "type": "address"
        },
        {
          "indexed": false,
          "internalType": "bool",
          "name": "approved",
          "type": "bool"
        }
      ],
      "name": "ApprovalForAll",
      "type": "event"
    },
    {
      "anonymous": false,
      "inputs": [
        {
          "indexed": true,
          "internalType": "address",
          "name": "previousOwner",
          "type": "address"
        },
        {
          "indexed": true,
          "internalType": "address",
          "name": "newOwner",
          "type": "address"
        }
      ],
      "name": "OwnershipTransferred",
      "type": "event"
    },
    {
      "anonymous": false,
      "inputs": [
        {
          "indexed": true,
          "internalType": "address",
          "name": "from",
          "type": "address"
        },
        {
          "indexed": true,
          "internalType": "address",
          "name": "to",
          "type": "address"
        },
        {
          "indexed": true,
          "internalType": "uint256",
          "name": "tokenId",
          "type": "uint256"
        }
      ],
      "name": "Transfer",
      "type": "event"
    },
    {
      "inputs": [
        {
          "internalType": "string",
          "name": "",
          "type": "string"
        }
      ],
      "name": "_names",
      "outputs": [
        {
          "internalType": "bool",
          "name": "",
          "type": "bool"
        }
      ],
      "stateMutability": "view",
      "type": "function",
      "constant": true
    },
    {
      "inputs": [
        {
          "internalType": "address",
          "name": "to",
          "type": "address"
        },
        {
          "internalType": "uint256",
          "name": "tokenId",
          "type": "uint256"
        }
      ],
      "name": "approve",
      "outputs": [],
      "stateMutability": "nonpayable",
      "type": "function"
    },
    {
      "inputs": [
        {
          "internalType": "address",
          "name": "owner",
          "type": "address"
        }
      ],
      "name": "balanceOf",
      "outputs": [
        {
          "internalType": "uint256",
          "name": "",
          "type": "uint256"
        }
      ],
      "stateMutability": "view",
      "type": "function",
      "constant": true
    },
    {
      "inputs": [
        {
          "internalType": "uint256",
          "name": "tokenId",
          "type": "uint256"
        }
      ],
      "name": "getApproved",
      "outputs": [
        {
          "internalType": "address",
          "name": "",
          "type": "address"
        }
      ],
      "stateMutability": "view",
      "type": "function",
      "constant": true
    },
    {
      "inputs": [
        {
          "internalType": "address",
          "name": "owner",
          "type": "address"
        },
        {
          "internalType": "address",
          "name": "operator",
          "type": "address"
        }
      ],
      "name": "isApprovedForAll",
      "outputs": [
        {
          "internalType": "bool",
          "name": "",
          "type": "bool"
        }
      ],
      "stateMutability": "view",
      "type": "function",
      "constant": true
    },
    {
      "inputs": [],
      "name": "name",
      "outputs": [
        {
          "internalType": "string",
          "name": "",
          "type": "string"
        }
      ],
      "stateMutability": "view",
      "type": "function",
      "constant": true
    },
    {
      "inputs": [],
      "name": "owner",
      "outputs": [
        {
          "internalType": "address",
          "name": "",
          "type": "address"
        }
      ],
      "stateMutability": "view",
      "type": "function",
      "constant": true
    },
    {
      "inputs": [
        {
          "internalType": "uint256",
          "name": "tokenId",
          "type": "uint256"
        }
      ],
      "name": "ownerOf",
      "outputs": [
        {
          "internalType": "address",
          "name": "",
          "type": "address"
        }
      ],
      "stateMutability": "view",
      "type": "function",
      "constant": true
    },
    {
      "inputs": [],
      "name": "renounceOwnership",
      "outputs": [],
      "stateMutability": "nonpayable",
      "type": "function"
    },
    {
      "inputs": [
        {
          "internalType": "address",
          "name": "from",
          "type": "address"
        },
        {
          "internalType": "address",
          "name": "to",
          "type": "address"
        },
        {
          "internalType": "uint256",
          "name": "tokenId",
          "type": "uint256"
        }
      ],
      "name": "safeTransferFrom",
      "outputs": [],
      "stateMutability": "nonpayable",
      "type": "function"
    },
    {
      "inputs": [
        {
          "internalType": "address",
          "name": "from",
          "type": "address"
        },
        {
          "internalType": "address",
          "name": "to",
          "type": "address"
        },
        {
          "internalType": "uint256",
          "name": "tokenId",
          "type": "uint256"
        },
        {
          "internalType": "bytes",
          "name": "_data",
          "type": "bytes"
        }
      ],
      "name": "safeTransferFrom",
      "outputs": [],
      "stateMutability": "nonpayable",
      "type": "function"
    },
    {
      "inputs": [
        {
          "internalType": "address",
          "name": "operator",
          "type": "address"
        },
        {
          "internalType": "bool",
          "name": "approved",
          "type": "bool"
        }
      ],
      "name": "setApprovalForAll",
      "outputs": [],
      "stateMutability": "nonpayable",
      "type": "function"
    },
    {
      "inputs": [
        {
          "internalType": "bytes4",
          "name": "interfaceId",
          "type": "bytes4"
        }
      ],
      "name": "supportsInterface",
      "outputs": [
        {
          "internalType": "bool",
          "name": "",
          "type": "bool"
        }
      ],
      "stateMutability": "view",
      "type": "function",
      "constant": true
    },
    {
      "inputs": [],
      "name": "symbol",
      "outputs": [
        {
          "internalType": "string",
          "name": "",
          "type": "string"
        }
      ],
      "stateMutability": "view",
      "type": "function",
      "constant": true
    },
    {
      "inputs": [
        {
          "internalType": "address",
          "name": "from",
          "type": "address"
        },
        {
          "internalType": "address",
          "name": "to",
          "type": "address"
        },
        {
          "internalType": "uint256",
          "name": "tokenId",
          "type": "uint256"
        }
      ],
      "name": "transferFrom",
      "outputs": [],
      "stateMutability": "nonpayable",
      "type": "function"
    },
    {
      "inputs": [
        {
          "internalType": "address",
          "name": "newOwner",
          "type": "address"
        }
      ],
      "name": "transferOwnership",
      "outputs": [],
      "stateMutability": "nonpayable",
      "type": "function"
    },
    {
      "inputs": [
        {
          "internalType": "string",
          "name": "_name",
          "type": "string"
        },
        {
          "internalType": "string",
          "name": "_data",
          "type": "string"
        },
        {
          "internalType": "address",
          "name": "who",
          "type": "address"
        }
      ],
      "name": "create",
      "outputs": [
        {
          "internalType": "uint256",
          "name": "",
          "type": "uint256"
        }
      ],
      "stateMutability": "nonpayable",
      "type": "function"
    },
    {
      "inputs": [
        {
          "internalType": "string",
          "name": "_name",
          "type": "string"
        },
        {
          "internalType": "address",
          "name": "who",
          "type": "address"
        }
      ],
      "name": "createCertificate",
      "outputs": [
        {
          "internalType": "uint256",
          "name": "",
          "type": "uint256"
        }
      ],
      "stateMutability": "nonpayable",
      "type": "function"
    },
    {
      "inputs": [
        {
          "internalType": "address",
          "name": "_user",
          "type": "address"
        }
      ],
      "name": "givePermission",
      "outputs": [],
      "stateMutability": "nonpayable",
      "type": "function"
    },
    {
      "inputs": [
        {
          "internalType": "address",
          "name": "who",
          "type": "address"
        },
        {
          "internalType": "uint256",
          "name": "amount",
          "type": "uint256"
        }
      ],
      "name": "giveAllowance",
      "outputs": [],
      "stateMutability": "nonpayable",
      "type": "function"
    },
    {
      "inputs": [
        {
          "internalType": "address",
          "name": "coinAddress",
          "type": "address"
        }
      ],
      "name": "addCoin",
      "outputs": [],
      "stateMutability": "nonpayable",
      "type": "function"
    },
    {
      "inputs": [
        {
          "internalType": "uint256",
          "name": "_newPrice",
          "type": "uint256"
        }
      ],
      "name": "setPrice",
      "outputs": [],
      "stateMutability": "nonpayable",
      "type": "function"
    },
    {
      "inputs": [
        {
          "internalType": "address",
          "name": "coin",
          "type": "address"
        },
        {
          "internalType": "uint256",
          "name": "_newPrice",
          "type": "uint256"
        }
      ],
      "name": "setPriceERC20",
      "outputs": [],
      "stateMutability": "nonpayable",
      "type": "function"
    },
    {
      "inputs": [
        {
          "internalType": "uint256",
          "name": "_index",
          "type": "uint256"
        }
      ],
      "name": "get",
      "outputs": [
        {
          "components": [
            {
              "internalType": "uint256",
              "name": "tokenId",
              "type": "uint256"
            },
            {
              "internalType": "string",
              "name": "name",
              "type": "string"
            },
            {
              "internalType": "address",
              "name": "owner",
              "type": "address"
            },
            {
              "internalType": "address",
              "name": "previusOwner",
              "type": "address"
            },
            {
              "internalType": "uint256",
              "name": "blockNumber",
              "type": "uint256"
            },
            {
              "internalType": "uint256",
              "name": "time",
              "type": "uint256"
            }
          ],
          "internalType": "struct Deccert.Certi",
          "name": "",
          "type": "tuple"
        }
      ],
      "stateMutability": "view",
      "type": "function",
      "constant": true
    },
    {
      "inputs": [
        {
          "internalType": "uint256",
          "name": "_index",
          "type": "uint256"
        }
      ],
      "name": "check",
      "outputs": [],
      "stateMutability": "view",
      "type": "function",
      "constant": true
    },
    {
      "inputs": [],
      "name": "getTotal",
      "outputs": [
        {
          "internalType": "uint256",
          "name": "",
          "type": "uint256"
        }
      ],
      "stateMutability": "view",
      "type": "function",
      "constant": true
    },
    {
      "inputs": [
        {
          "internalType": "string",
          "name": "newEntry",
          "type": "string"
        }
      ],
      "name": "setBaseURI",
      "outputs": [],
      "stateMutability": "nonpayable",
      "type": "function"
    },
    {
      "inputs": [
        {
          "internalType": "uint256",
          "name": "tokenId",
          "type": "uint256"
        }
      ],
      "name": "tokenURI",
      "outputs": [
        {
          "internalType": "string",
          "name": "",
          "type": "string"
        }
      ],
      "stateMutability": "view",
      "type": "function",
      "constant": true
    }
  ],
  "bytecode": "0x60806040526305f5e100600f553480156200001957600080fd5b506040518060400160405280600781526020017f44656363657274000000000000000000000000000000000000000000000000008152506040518060400160405280600781526020017f444543434552540000000000000000000000000000000000000000000000000081525081600090805190602001906200009e929190620001ae565b508060019080519060200190620000b7929190620001ae565b505050620000da620000ce620000e060201b60201c565b620000e860201b60201c565b620002c3565b600033905090565b6000600760009054906101000a900473ffffffffffffffffffffffffffffffffffffffff16905081600760006101000a81548173ffffffffffffffffffffffffffffffffffffffff021916908373ffffffffffffffffffffffffffffffffffffffff1602179055508173ffffffffffffffffffffffffffffffffffffffff168173ffffffffffffffffffffffffffffffffffffffff167f8be0079c531659141344cd1fd0a4f28419497f9722a3daafe3b4186f6b6457e060405160405180910390a35050565b828054620001bc906200025e565b90600052602060002090601f016020900481019282620001e057600085556200022c565b82601f10620001fb57805160ff19168380011785556200022c565b828001600101855582156200022c579182015b828111156200022b5782518255916020019190600101906200020e565b5b5090506200023b91906200023f565b5090565b5b808211156200025a57600081600090555060010162000240565b5090565b600060028204905060018216806200027757607f821691505b602082108114156200028e576200028d62000294565b5b50919050565b7f4e487b7100000000000000000000000000000000000000000000000000000000600052602260045260246000fd5b61404880620002d36000396000f3fe608060405234801561001057600080fd5b50600436106101c45760003560e01c8063715018a6116100f9578063a22cb46511610097578063c87b56dd11610071578063c87b56dd146104eb578063d1760fac1461051b578063e985e9c51461054b578063f2fde38b1461057b576101c4565b8063a22cb46514610483578063b854b0781461049f578063b88d4fde146104cf576101c4565b806391b7f5ed116100d357806391b7f5ed146103fd5780639507d39a14610419578063958ff7fb1461044957806395d89b4114610465576101c4565b8063715018a6146103b7578063775a25e3146103c15780638da5cb5b146103df576101c4565b806342842e0e116101665780635a9c2724116101405780635a9c27241461030b5780635f72f4501461033b5780636352211e1461035757806370a0823114610387576101c4565b806342842e0e146102b757806355f804b3146102d3578063571429ba146102ef576101c4565b8063095ea7b3116101a2578063095ea7b31461024757806316da86321461026357806323b872dd1461027f5780633d391f701461029b576101c4565b806301ffc9a7146101c957806306fdde03146101f9578063081812fc14610217575b600080fd5b6101e360048036038101906101de9190612c30565b610597565b6040516101f09190613385565b60405180910390f35b610201610679565b60405161020e91906133a0565b60405180910390f35b610231600480360381019061022c9190612ddb565b61070b565b60405161023e919061331e565b60405180910390f35b610261600480360381019061025c9190612bf4565b610790565b005b61027d60048036038101906102789190612a89565b6108a8565b005b61029960048036038101906102949190612aee565b61098a565b005b6102b560048036038101906102b09190612a89565b6109ea565b005b6102d160048036038101906102cc9190612aee565b610aae565b005b6102ed60048036038101906102e89190612c82565b610ace565b005b61030960048036038101906103049190612bf4565b610b60565b005b61032560048036038101906103209190612d5c565b610d2d565b6040516103329190613644565b60405180910390f35b61035560048036038101906103509190612ddb565b610f29565b005b610371600480360381019061036c9190612ddb565b610f9a565b60405161037e919061331e565b60405180910390f35b6103a1600480360381019061039c9190612a89565b61104c565b6040516103ae9190613644565b60405180910390f35b6103bf611104565b005b6103c961118c565b6040516103d69190613644565b60405180910390f35b6103e761119d565b6040516103f4919061331e565b60405180910390f35b61041760048036038101906104129190612ddb565b6111c7565b005b610433600480360381019061042e9190612ddb565b61124d565b6040516104409190613622565b60405180910390f35b610463600480360381019061045e9190612bf4565b6113d6565b005b61046d61149a565b60405161047a91906133a0565b60405180910390f35b61049d60048036038101906104989190612bb8565b61152c565b005b6104b960048036038101906104b49190612d08565b611542565b6040516104c69190613644565b60405180910390f35b6104e960048036038101906104e49190612b3d565b61178d565b005b61050560048036038101906105009190612ddb565b6117ef565b60405161051291906133a0565b60405180910390f35b61053560048036038101906105309190612cc7565b61186b565b6040516105429190613385565b60405180910390f35b61056560048036038101906105609190612ab2565b6118a1565b6040516105729190613385565b60405180910390f35b61059560048036038101906105909190612a89565b611935565b005b60007f80ac58cd000000000000000000000000000000000000000000000000000000007bffffffffffffffffffffffffffffffffffffffffffffffffffffffff1916827bffffffffffffffffffffffffffffffffffffffffffffffffffffffff1916148061066257507f5b5e139f000000000000000000000000000000000000000000000000000000007bffffffffffffffffffffffffffffffffffffffffffffffffffffffff1916827bffffffffffffffffffffffffffffffffffffffffffffffffffffffff1916145b80610672575061067182611a2d565b5b9050919050565b606060008054610688906138ea565b80601f01602080910402602001604051908101604052809291908181526020018280546106b4906138ea565b80156107015780601f106106d657610100808354040283529160200191610701565b820191906000526020600020905b8154815290600101906020018083116106e457829003601f168201915b5050505050905090565b600061071682611a97565b610755576040517f08c379a000000000000000000000000000000000000000000000000000000000815260040161074c90613582565b60405180910390fd5b6004600083815260200190815260200160002060009054906101000a900473ffffffffffffffffffffffffffffffffffffffff169050919050565b600061079b82610f9a565b90508073ffffffffffffffffffffffffffffffffffffffff168373ffffffffffffffffffffffffffffffffffffffff16141561080c576040517f08c379a0000000000000000000000000000000000000000000000000000000008152600401610803906135e2565b60405180910390fd5b8073ffffffffffffffffffffffffffffffffffffffff1661082b611b03565b73ffffffffffffffffffffffffffffffffffffffff16148061085a575061085981610854611b03565b6118a1565b5b610899576040517f08c379a0000000000000000000000000000000000000000000000000000000008152600401610890906134e2565b60405180910390fd5b6108a38383611b0b565b505050565b6108b0611b03565b73ffffffffffffffffffffffffffffffffffffffff166108ce61119d565b73ffffffffffffffffffffffffffffffffffffffff1614610924576040517f08c379a000000000000000000000000000000000000000000000000000000000815260040161091b906135a2565b60405180910390fd5b600c819080600181540180825580915050600190039060005260206000200160009091909190916101000a81548173ffffffffffffffffffffffffffffffffffffffff021916908373ffffffffffffffffffffffffffffffffffffffff16021790555050565b61099b610995611b03565b82611bc4565b6109da576040517f08c379a00000000000000000000000000000000000000000000000000000000081526004016109d190613602565b60405180910390fd5b6109e5838383611ca2565b505050565b6109f2611b03565b73ffffffffffffffffffffffffffffffffffffffff16610a1061119d565b73ffffffffffffffffffffffffffffffffffffffff1614610a66576040517f08c379a0000000000000000000000000000000000000000000000000000000008152600401610a5d906135a2565b60405180910390fd5b6001600960008373ffffffffffffffffffffffffffffffffffffffff1673ffffffffffffffffffffffffffffffffffffffff1681526020019081526020016000208190555050565b610ac98383836040518060200160405280600081525061178d565b505050565b610ad6611b03565b73ffffffffffffffffffffffffffffffffffffffff16610af461119d565b73ffffffffffffffffffffffffffffffffffffffff1614610b4a576040517f08c379a0000000000000000000000000000000000000000000000000000000008152600401610b41906135a2565b60405180910390fd5b8181600e9190610b5b92919061277b565b505050565b610b68611b03565b73ffffffffffffffffffffffffffffffffffffffff16610b8661119d565b73ffffffffffffffffffffffffffffffffffffffff1614610bdc576040517f08c379a0000000000000000000000000000000000000000000000000000000008152600401610bd3906135a2565b60405180910390fd5b60008111610c1f576040517f08c379a0000000000000000000000000000000000000000000000000000000008152600401610c1690613402565b60405180910390fd5b60005b600c80549050811015610d28578273ffffffffffffffffffffffffffffffffffffffff16600c8281548110610c80577f4e487b7100000000000000000000000000000000000000000000000000000000600052603260045260246000fd5b9060005260206000200160009054906101000a900473ffffffffffffffffffffffffffffffffffffffff1673ffffffffffffffffffffffffffffffffffffffff161415610d155781600d8281548110610d02577f4e487b7100000000000000000000000000000000000000000000000000000000600052603260045260246000fd5b9060005260206000200181905550610d28565b8080610d209061394d565b915050610c22565b505050565b6000610d37611b03565b73ffffffffffffffffffffffffffffffffffffffff16610d5561119d565b73ffffffffffffffffffffffffffffffffffffffff1614610dab576040517f08c379a0000000000000000000000000000000000000000000000000000000008152600401610da2906135a2565b60405180910390fd5b610db56008611f09565b6000610dc16008611f1f565b9050610dcd3382611f2d565b610dd78185612107565b60006040518060c00160405280610dee6008611f1f565b81526020018781526020018573ffffffffffffffffffffffffffffffffffffffff1681526020018573ffffffffffffffffffffffffffffffffffffffff16815260200143815260200142815250905080600b6000848152602001908152602001600020600082015181600001556020820151816001019080519060200190610e77929190612801565b5060408201518160020160006101000a81548173ffffffffffffffffffffffffffffffffffffffff021916908373ffffffffffffffffffffffffffffffffffffffff16021790555060608201518160030160006101000a81548173ffffffffffffffffffffffffffffffffffffffff021916908373ffffffffffffffffffffffffffffffffffffffff1602179055506080820151816004015560a0820151816005015590505081925050509392505050565b3373ffffffffffffffffffffffffffffffffffffffff16600b600083815260200190815260200160002060020160009054906101000a900473ffffffffffffffffffffffffffffffffffffffff1673ffffffffffffffffffffffffffffffffffffffff1614610f9757600080fd5b50565b6000806002600084815260200190815260200160002060009054906101000a900473ffffffffffffffffffffffffffffffffffffffff169050600073ffffffffffffffffffffffffffffffffffffffff168173ffffffffffffffffffffffffffffffffffffffff161415611043576040517f08c379a000000000000000000000000000000000000000000000000000000000815260040161103a90613522565b60405180910390fd5b80915050919050565b60008073ffffffffffffffffffffffffffffffffffffffff168273ffffffffffffffffffffffffffffffffffffffff1614156110bd576040517f08c379a00000000000000000000000000000000000000000000000000000000081526004016110b490613502565b60405180910390fd5b600360008373ffffffffffffffffffffffffffffffffffffffff1673ffffffffffffffffffffffffffffffffffffffff168152602001908152602001600020549050919050565b61110c611b03565b73ffffffffffffffffffffffffffffffffffffffff1661112a61119d565b73ffffffffffffffffffffffffffffffffffffffff1614611180576040517f08c379a0000000000000000000000000000000000000000000000000000000008152600401611177906135a2565b60405180910390fd5b61118a600061217b565b565b60006111986008611f1f565b905090565b6000600760009054906101000a900473ffffffffffffffffffffffffffffffffffffffff16905090565b6111cf611b03565b73ffffffffffffffffffffffffffffffffffffffff166111ed61119d565b73ffffffffffffffffffffffffffffffffffffffff1614611243576040517f08c379a000000000000000000000000000000000000000000000000000000000815260040161123a906135a2565b60405180910390fd5b80600f8190555050565b611255612887565b600b60008381526020019081526020016000206040518060c00160405290816000820154815260200160018201805461128d906138ea565b80601f01602080910402602001604051908101604052809291908181526020018280546112b9906138ea565b80156113065780601f106112db57610100808354040283529160200191611306565b820191906000526020600020905b8154815290600101906020018083116112e957829003601f168201915b505050505081526020016002820160009054906101000a900473ffffffffffffffffffffffffffffffffffffffff1673ffffffffffffffffffffffffffffffffffffffff1673ffffffffffffffffffffffffffffffffffffffff1681526020016003820160009054906101000a900473ffffffffffffffffffffffffffffffffffffffff1673ffffffffffffffffffffffffffffffffffffffff1673ffffffffffffffffffffffffffffffffffffffff168152602001600482015481526020016005820154815250509050919050565b6113de611b03565b73ffffffffffffffffffffffffffffffffffffffff166113fc61119d565b73ffffffffffffffffffffffffffffffffffffffff1614611452576040517f08c379a0000000000000000000000000000000000000000000000000000000008152600401611449906135a2565b60405180910390fd5b80600960008473ffffffffffffffffffffffffffffffffffffffff1673ffffffffffffffffffffffffffffffffffffffff168152602001908152602001600020819055505050565b6060600180546114a9906138ea565b80601f01602080910402602001604051908101604052809291908181526020018280546114d5906138ea565b80156115225780601f106114f757610100808354040283529160200191611522565b820191906000526020600020905b81548152906001019060200180831161150557829003601f168201915b5050505050905090565b61153e611537611b03565b8383612241565b5050565b600080600960003373ffffffffffffffffffffffffffffffffffffffff1673ffffffffffffffffffffffffffffffffffffffff16815260200190815260200160002054116115c5576040517f08c379a00000000000000000000000000000000000000000000000000000000081526004016115bc906135c2565b60405180910390fd5b600960003373ffffffffffffffffffffffffffffffffffffffff1673ffffffffffffffffffffffffffffffffffffffff1681526020019081526020016000206000815480929190611615906138c0565b91905055506116246008611f09565b60006116306008611f1f565b905061163c3382611f2d565b60006040518060c001604052806116536008611f1f565b81526020018681526020018573ffffffffffffffffffffffffffffffffffffffff1681526020018573ffffffffffffffffffffffffffffffffffffffff16815260200143815260200142815250905080600b60008481526020019081526020016000206000820151816000015560208201518160010190805190602001906116dc929190612801565b5060408201518160020160006101000a81548173ffffffffffffffffffffffffffffffffffffffff021916908373ffffffffffffffffffffffffffffffffffffffff16021790555060608201518160030160006101000a81548173ffffffffffffffffffffffffffffffffffffffff021916908373ffffffffffffffffffffffffffffffffffffffff1602179055506080820151816004015560a08201518160050155905050819250505092915050565b61179e611798611b03565b83611bc4565b6117dd576040517f08c379a00000000000000000000000000000000000000000000000000000000081526004016117d490613602565b60405180910390fd5b6117e9848484846123ae565b50505050565b60606117fa82611a97565b611839576040517f08c379a0000000000000000000000000000000000000000000000000000000008152600401611830906133c2565b60405180910390fd5b600e6118448361240a565b6040516020016118559291906132ef565b6040516020818303038152906040529050919050565b600a818051602081018201805184825260208301602085012081835280955050505050506000915054906101000a900460ff1681565b6000600560008473ffffffffffffffffffffffffffffffffffffffff1673ffffffffffffffffffffffffffffffffffffffff16815260200190815260200160002060008373ffffffffffffffffffffffffffffffffffffffff1673ffffffffffffffffffffffffffffffffffffffff16815260200190815260200160002060009054906101000a900460ff16905092915050565b61193d611b03565b73ffffffffffffffffffffffffffffffffffffffff1661195b61119d565b73ffffffffffffffffffffffffffffffffffffffff16146119b1576040517f08c379a00000000000000000000000000000000000000000000000000000000081526004016119a8906135a2565b60405180910390fd5b600073ffffffffffffffffffffffffffffffffffffffff168173ffffffffffffffffffffffffffffffffffffffff161415611a21576040517f08c379a0000000000000000000000000000000000000000000000000000000008152600401611a1890613422565b60405180910390fd5b611a2a8161217b565b50565b60007f01ffc9a7000000000000000000000000000000000000000000000000000000007bffffffffffffffffffffffffffffffffffffffffffffffffffffffff1916827bffffffffffffffffffffffffffffffffffffffffffffffffffffffff1916149050919050565b60008073ffffffffffffffffffffffffffffffffffffffff166002600084815260200190815260200160002060009054906101000a900473ffffffffffffffffffffffffffffffffffffffff1673ffffffffffffffffffffffffffffffffffffffff1614159050919050565b600033905090565b816004600083815260200190815260200160002060006101000a81548173ffffffffffffffffffffffffffffffffffffffff021916908373ffffffffffffffffffffffffffffffffffffffff160217905550808273ffffffffffffffffffffffffffffffffffffffff16611b7e83610f9a565b73ffffffffffffffffffffffffffffffffffffffff167f8c5be1e5ebec7d5bd14f71427d1e84f3dd0314c0f7b2291e5b200ac8c7c3b92560405160405180910390a45050565b6000611bcf82611a97565b611c0e576040517f08c379a0000000000000000000000000000000000000000000000000000000008152600401611c05906134c2565b60405180910390fd5b6000611c1983610f9a565b90508073ffffffffffffffffffffffffffffffffffffffff168473ffffffffffffffffffffffffffffffffffffffff161480611c8857508373ffffffffffffffffffffffffffffffffffffffff16611c708461070b565b73ffffffffffffffffffffffffffffffffffffffff16145b80611c995750611c9881856118a1565b5b91505092915050565b8273ffffffffffffffffffffffffffffffffffffffff16611cc282610f9a565b73ffffffffffffffffffffffffffffffffffffffff1614611d18576040517f08c379a0000000000000000000000000000000000000000000000000000000008152600401611d0f90613442565b60405180910390fd5b600073ffffffffffffffffffffffffffffffffffffffff168273ffffffffffffffffffffffffffffffffffffffff161415611d88576040517f08c379a0000000000000000000000000000000000000000000000000000000008152600401611d7f90613482565b60405180910390fd5b611d938383836125b7565b611d9e600082611b0b565b6001600360008573ffffffffffffffffffffffffffffffffffffffff1673ffffffffffffffffffffffffffffffffffffffff1681526020019081526020016000206000828254611dee91906137d6565b925050819055506001600360008473ffffffffffffffffffffffffffffffffffffffff1673ffffffffffffffffffffffffffffffffffffffff1681526020019081526020016000206000828254611e45919061374f565b92505081905550816002600083815260200190815260200160002060006101000a81548173ffffffffffffffffffffffffffffffffffffffff021916908373ffffffffffffffffffffffffffffffffffffffff160217905550808273ffffffffffffffffffffffffffffffffffffffff168473ffffffffffffffffffffffffffffffffffffffff167fddf252ad1be2c89b69c2b068fc378daa952ba7f163c4a11628f55a4df523b3ef60405160405180910390a4611f048383836125bc565b505050565b6001816000016000828254019250508190555050565b600081600001549050919050565b600073ffffffffffffffffffffffffffffffffffffffff168273ffffffffffffffffffffffffffffffffffffffff161415611f9d576040517f08c379a0000000000000000000000000000000000000000000000000000000008152600401611f9490613562565b60405180910390fd5b611fa681611a97565b15611fe6576040517f08c379a0000000000000000000000000000000000000000000000000000000008152600401611fdd90613462565b60405180910390fd5b611ff2600083836125b7565b6001600360008473ffffffffffffffffffffffffffffffffffffffff1673ffffffffffffffffffffffffffffffffffffffff1681526020019081526020016000206000828254612042919061374f565b92505081905550816002600083815260200190815260200160002060006101000a81548173ffffffffffffffffffffffffffffffffffffffff021916908373ffffffffffffffffffffffffffffffffffffffff160217905550808273ffffffffffffffffffffffffffffffffffffffff16600073ffffffffffffffffffffffffffffffffffffffff167fddf252ad1be2c89b69c2b068fc378daa952ba7f163c4a11628f55a4df523b3ef60405160405180910390a4612103600083836125bc565b5050565b61211082611a97565b61214f576040517f08c379a000000000000000000000000000000000000000000000000000000000815260040161214690613542565b60405180910390fd5b80600660008481526020019081526020016000209080519060200190612176929190612801565b505050565b6000600760009054906101000a900473ffffffffffffffffffffffffffffffffffffffff16905081600760006101000a81548173ffffffffffffffffffffffffffffffffffffffff021916908373ffffffffffffffffffffffffffffffffffffffff1602179055508173ffffffffffffffffffffffffffffffffffffffff168173ffffffffffffffffffffffffffffffffffffffff167f8be0079c531659141344cd1fd0a4f28419497f9722a3daafe3b4186f6b6457e060405160405180910390a35050565b8173ffffffffffffffffffffffffffffffffffffffff168373ffffffffffffffffffffffffffffffffffffffff1614156122b0576040517f08c379a00000000000000000000000000000000000000000000000000000000081526004016122a7906134a2565b60405180910390fd5b80600560008573ffffffffffffffffffffffffffffffffffffffff1673ffffffffffffffffffffffffffffffffffffffff16815260200190815260200160002060008473ffffffffffffffffffffffffffffffffffffffff1673ffffffffffffffffffffffffffffffffffffffff16815260200190815260200160002060006101000a81548160ff0219169083151502179055508173ffffffffffffffffffffffffffffffffffffffff168373ffffffffffffffffffffffffffffffffffffffff167f17307eab39ab6107e8899845ad3d59bd9653f200f220920489ca2b5937696c31836040516123a19190613385565b60405180910390a3505050565b6123b9848484611ca2565b6123c5848484846125c1565b612404576040517f08c379a00000000000000000000000000000000000000000000000000000000081526004016123fb906133e2565b60405180910390fd5b50505050565b60606000821415612452576040518060400160405280600181526020017f300000000000000000000000000000000000000000000000000000000000000081525090506125b2565b600082905060005b6000821461248457808061246d9061394d565b915050600a8261247d91906137a5565b915061245a565b60008167ffffffffffffffff8111156124c6577f4e487b7100000000000000000000000000000000000000000000000000000000600052604160045260246000fd5b6040519080825280601f01601f1916602001820160405280156124f85781602001600182028036833780820191505090505b5090505b600085146125ab5760018261251191906137d6565b9150600a856125209190613996565b603061252c919061374f565b60f81b818381518110612568577f4e487b7100000000000000000000000000000000000000000000000000000000600052603260045260246000fd5b60200101907effffffffffffffffffffffffffffffffffffffffffffffffffffffffffffff1916908160001a905350600a856125a491906137a5565b94506124fc565b8093505050505b919050565b505050565b505050565b60006125e28473ffffffffffffffffffffffffffffffffffffffff16612758565b1561274b578373ffffffffffffffffffffffffffffffffffffffff1663150b7a0261260b611b03565b8786866040518563ffffffff1660e01b815260040161262d9493929190613339565b602060405180830381600087803b15801561264757600080fd5b505af192505050801561267857506040513d601f19601f820116820180604052508101906126759190612c59565b60015b6126fb573d80600081146126a8576040519150601f19603f3d011682016040523d82523d6000602084013e6126ad565b606091505b506000815114156126f3576040517f08c379a00000000000000000000000000000000000000000000000000000000081526004016126ea906133e2565b60405180910390fd5b805181602001fd5b63150b7a0260e01b7bffffffffffffffffffffffffffffffffffffffffffffffffffffffff1916817bffffffffffffffffffffffffffffffffffffffffffffffffffffffff191614915050612750565b600190505b949350505050565b6000808273ffffffffffffffffffffffffffffffffffffffff163b119050919050565b828054612787906138ea565b90600052602060002090601f0160209004810192826127a957600085556127f0565b82601f106127c257803560ff19168380011785556127f0565b828001600101855582156127f0579182015b828111156127ef5782358255916020019190600101906127d4565b5b5090506127fd91906128e9565b5090565b82805461280d906138ea565b90600052602060002090601f01602090048101928261282f5760008555612876565b82601f1061284857805160ff1916838001178555612876565b82800160010185558215612876579182015b8281111561287557825182559160200191906001019061285a565b5b50905061288391906128e9565b5090565b6040518060c001604052806000815260200160608152602001600073ffffffffffffffffffffffffffffffffffffffff168152602001600073ffffffffffffffffffffffffffffffffffffffff16815260200160008152602001600081525090565b5b808211156129025760008160009055506001016128ea565b5090565b600061291961291484613684565b61365f565b90508281526020810184848401111561293157600080fd5b61293c84828561387e565b509392505050565b6000612957612952846136b5565b61365f565b90508281526020810184848401111561296f57600080fd5b61297a84828561387e565b509392505050565b60008135905061299181613fb6565b92915050565b6000813590506129a681613fcd565b92915050565b6000813590506129bb81613fe4565b92915050565b6000815190506129d081613fe4565b92915050565b600082601f8301126129e757600080fd5b81356129f7848260208601612906565b91505092915050565b60008083601f840112612a1257600080fd5b8235905067ffffffffffffffff811115612a2b57600080fd5b602083019150836001820283011115612a4357600080fd5b9250929050565b600082601f830112612a5b57600080fd5b8135612a6b848260208601612944565b91505092915050565b600081359050612a8381613ffb565b92915050565b600060208284031215612a9b57600080fd5b6000612aa984828501612982565b91505092915050565b60008060408385031215612ac557600080fd5b6000612ad385828601612982565b9250506020612ae485828601612982565b9150509250929050565b600080600060608486031215612b0357600080fd5b6000612b1186828701612982565b9350506020612b2286828701612982565b9250506040612b3386828701612a74565b9150509250925092565b60008060008060808587031215612b5357600080fd5b6000612b6187828801612982565b9450506020612b7287828801612982565b9350506040612b8387828801612a74565b925050606085013567ffffffffffffffff811115612ba057600080fd5b612bac878288016129d6565b91505092959194509250565b60008060408385031215612bcb57600080fd5b6000612bd985828601612982565b9250506020612bea85828601612997565b9150509250929050565b60008060408385031215612c0757600080fd5b6000612c1585828601612982565b9250506020612c2685828601612a74565b9150509250929050565b600060208284031215612c4257600080fd5b6000612c50848285016129ac565b91505092915050565b600060208284031215612c6b57600080fd5b6000612c79848285016129c1565b91505092915050565b60008060208385031215612c9557600080fd5b600083013567ffffffffffffffff811115612caf57600080fd5b612cbb85828601612a00565b92509250509250929050565b600060208284031215612cd957600080fd5b600082013567ffffffffffffffff811115612cf357600080fd5b612cff84828501612a4a565b91505092915050565b60008060408385031215612d1b57600080fd5b600083013567ffffffffffffffff811115612d3557600080fd5b612d4185828601612a4a565b9250506020612d5285828601612982565b9150509250929050565b600080600060608486031215612d7157600080fd5b600084013567ffffffffffffffff811115612d8b57600080fd5b612d9786828701612a4a565b935050602084013567ffffffffffffffff811115612db457600080fd5b612dc086828701612a4a565b9250506040612dd186828701612982565b9150509250925092565b600060208284031215612ded57600080fd5b6000612dfb84828501612a74565b91505092915050565b612e0d8161380a565b82525050565b612e1c8161380a565b82525050565b612e2b8161381c565b82525050565b6000612e3c826136fb565b612e468185613711565b9350612e5681856020860161388d565b612e5f81613a83565b840191505092915050565b6000612e7582613706565b612e7f8185613722565b9350612e8f81856020860161388d565b612e9881613a83565b840191505092915050565b6000612eae82613706565b612eb88185613733565b9350612ec881856020860161388d565b612ed181613a83565b840191505092915050565b6000612ee782613706565b612ef18185613744565b9350612f0181856020860161388d565b80840191505092915050565b60008154612f1a816138ea565b612f248186613744565b94506001821660008114612f3f5760018114612f5057612f83565b60ff19831686528186019350612f83565b612f59856136e6565b60005b83811015612f7b57815481890152600182019150602081019050612f5c565b838801955050505b50505092915050565b6000612f99601f83613733565b9150612fa482613a94565b602082019050919050565b6000612fbc603283613733565b9150612fc782613abd565b604082019050919050565b6000612fdf601b83613733565b9150612fea82613b0c565b602082019050919050565b6000613002602683613733565b915061300d82613b35565b604082019050919050565b6000613025602583613733565b915061303082613b84565b604082019050919050565b6000613048601c83613733565b915061305382613bd3565b602082019050919050565b600061306b602483613733565b915061307682613bfc565b604082019050919050565b600061308e601983613733565b915061309982613c4b565b602082019050919050565b60006130b1602c83613733565b91506130bc82613c74565b604082019050919050565b60006130d4603883613733565b91506130df82613cc3565b604082019050919050565b60006130f7602a83613733565b915061310282613d12565b604082019050919050565b600061311a602983613733565b915061312582613d61565b604082019050919050565b600061313d602e83613733565b915061314882613db0565b604082019050919050565b6000613160602083613733565b915061316b82613dff565b602082019050919050565b6000613183602c83613733565b915061318e82613e28565b604082019050919050565b60006131a6600583613744565b91506131b182613e77565b600582019050919050565b60006131c9602083613733565b91506131d482613ea0565b602082019050919050565b60006131ec602183613733565b91506131f782613ec9565b604082019050919050565b600061320f602183613733565b915061321a82613f18565b604082019050919050565b6000613232603183613733565b915061323d82613f67565b604082019050919050565b600060c08301600083015161326060008601826132d1565b50602083015184820360208601526132788282612e6a565b915050604083015161328d6040860182612e04565b5060608301516132a06060860182612e04565b5060808301516132b360808601826132d1565b5060a08301516132c660a08601826132d1565b508091505092915050565b6132da81613874565b82525050565b6132e981613874565b82525050565b60006132fb8285612f0d565b91506133078284612edc565b915061331282613199565b91508190509392505050565b60006020820190506133336000830184612e13565b92915050565b600060808201905061334e6000830187612e13565b61335b6020830186612e13565b61336860408301856132e0565b818103606083015261337a8184612e31565b905095945050505050565b600060208201905061339a6000830184612e22565b92915050565b600060208201905081810360008301526133ba8184612ea3565b905092915050565b600060208201905081810360008301526133db81612f8c565b9050919050565b600060208201905081810360008301526133fb81612faf565b9050919050565b6000602082019050818103600083015261341b81612fd2565b9050919050565b6000602082019050818103600083015261343b81612ff5565b9050919050565b6000602082019050818103600083015261345b81613018565b9050919050565b6000602082019050818103600083015261347b8161303b565b9050919050565b6000602082019050818103600083015261349b8161305e565b9050919050565b600060208201905081810360008301526134bb81613081565b9050919050565b600060208201905081810360008301526134db816130a4565b9050919050565b600060208201905081810360008301526134fb816130c7565b9050919050565b6000602082019050818103600083015261351b816130ea565b9050919050565b6000602082019050818103600083015261353b8161310d565b9050919050565b6000602082019050818103600083015261355b81613130565b9050919050565b6000602082019050818103600083015261357b81613153565b9050919050565b6000602082019050818103600083015261359b81613176565b9050919050565b600060208201905081810360008301526135bb816131bc565b9050919050565b600060208201905081810360008301526135db816131df565b9050919050565b600060208201905081810360008301526135fb81613202565b9050919050565b6000602082019050818103600083015261361b81613225565b9050919050565b6000602082019050818103600083015261363c8184613248565b905092915050565b600060208201905061365960008301846132e0565b92915050565b600061366961367a565b9050613675828261391c565b919050565b6000604051905090565b600067ffffffffffffffff82111561369f5761369e613a54565b5b6136a882613a83565b9050602081019050919050565b600067ffffffffffffffff8211156136d0576136cf613a54565b5b6136d982613a83565b9050602081019050919050565b60008190508160005260206000209050919050565b600081519050919050565b600081519050919050565b600082825260208201905092915050565b600082825260208201905092915050565b600082825260208201905092915050565b600081905092915050565b600061375a82613874565b915061376583613874565b9250827fffffffffffffffffffffffffffffffffffffffffffffffffffffffffffffffff0382111561379a576137996139c7565b5b828201905092915050565b60006137b082613874565b91506137bb83613874565b9250826137cb576137ca6139f6565b5b828204905092915050565b60006137e182613874565b91506137ec83613874565b9250828210156137ff576137fe6139c7565b5b828203905092915050565b600061381582613854565b9050919050565b60008115159050919050565b60007fffffffff0000000000000000000000000000000000000000000000000000000082169050919050565b600073ffffffffffffffffffffffffffffffffffffffff82169050919050565b6000819050919050565b82818337600083830152505050565b60005b838110156138ab578082015181840152602081019050613890565b838111156138ba576000848401525b50505050565b60006138cb82613874565b915060008214156138df576138de6139c7565b5b600182039050919050565b6000600282049050600182168061390257607f821691505b6020821081141561391657613915613a25565b5b50919050565b61392582613a83565b810181811067ffffffffffffffff8211171561394457613943613a54565b5b80604052505050565b600061395882613874565b91507fffffffffffffffffffffffffffffffffffffffffffffffffffffffffffffffff82141561398b5761398a6139c7565b5b600182019050919050565b60006139a182613874565b91506139ac83613874565b9250826139bc576139bb6139f6565b5b828206905092915050565b7f4e487b7100000000000000000000000000000000000000000000000000000000600052601160045260246000fd5b7f4e487b7100000000000000000000000000000000000000000000000000000000600052601260045260246000fd5b7f4e487b7100000000000000000000000000000000000000000000000000000000600052602260045260246000fd5b7f4e487b7100000000000000000000000000000000000000000000000000000000600052604160045260246000fd5b6000601f19601f8301169050919050565b7f55524920717565727920666f72206e6f6e6578697374656e7420746f6b656e00600082015250565b7f4552433732313a207472616e7366657220746f206e6f6e20455243373231526560008201527f63656976657220696d706c656d656e7465720000000000000000000000000000602082015250565b7f70726963652068617320746f206265206d6f7265207468616e20300000000000600082015250565b7f4f776e61626c653a206e6577206f776e657220697320746865207a65726f206160008201527f6464726573730000000000000000000000000000000000000000000000000000602082015250565b7f4552433732313a207472616e736665722066726f6d20696e636f72726563742060008201527f6f776e6572000000000000000000000000000000000000000000000000000000602082015250565b7f4552433732313a20746f6b656e20616c7265616479206d696e74656400000000600082015250565b7f4552433732313a207472616e7366657220746f20746865207a65726f2061646460008201527f7265737300000000000000000000000000000000000000000000000000000000602082015250565b7f4552433732313a20617070726f766520746f2063616c6c657200000000000000600082015250565b7f4552433732313a206f70657261746f7220717565727920666f72206e6f6e657860008201527f697374656e7420746f6b656e0000000000000000000000000000000000000000602082015250565b7f4552433732313a20617070726f76652063616c6c6572206973206e6f74206f7760008201527f6e6572206e6f7220617070726f76656420666f7220616c6c0000000000000000602082015250565b7f4552433732313a2062616c616e636520717565727920666f7220746865207a6560008201527f726f206164647265737300000000000000000000000000000000000000000000602082015250565b7f4552433732313a206f776e657220717565727920666f72206e6f6e657869737460008201527f656e7420746f6b656e0000000000000000000000000000000000000000000000602082015250565b7f45524337323155524953746f726167653a2055524920736574206f66206e6f6e60008201527f6578697374656e7420746f6b656e000000000000000000000000000000000000602082015250565b7f4552433732313a206d696e7420746f20746865207a65726f2061646472657373600082015250565b7f4552433732313a20617070726f76656420717565727920666f72206e6f6e657860008201527f697374656e7420746f6b656e0000000000000000000000000000000000000000602082015250565b7f2e6a736f6e000000000000000000000000000000000000000000000000000000600082015250565b7f4f776e61626c653a2063616c6c6572206973206e6f7420746865206f776e6572600082015250565b7f48617320746f206265206d6f7265207468616e2030207065726d697373696f6e60008201527f7300000000000000000000000000000000000000000000000000000000000000602082015250565b7f4552433732313a20617070726f76616c20746f2063757272656e74206f776e6560008201527f7200000000000000000000000000000000000000000000000000000000000000602082015250565b7f4552433732313a207472616e736665722063616c6c6572206973206e6f74206f60008201527f776e6572206e6f7220617070726f766564000000000000000000000000000000602082015250565b613fbf8161380a565b8114613fca57600080fd5b50565b613fd68161381c565b8114613fe157600080fd5b50565b613fed81613828565b8114613ff857600080fd5b50565b61400481613874565b811461400f57600080fd5b5056fea2646970667358221220e0bc19966a9c0ec02d6ce8364e76677e81b7353a7d837aa9b21f800fc614820164736f6c63430008030033",
  "immutableReferences": {},
  "source": "// SPDX-License-Identifier: MIT\npragma solidity ^0.8.0;\n\nimport \"@openzeppelin/contracts/token/ERC721/extensions/ERC721URIStorage.sol\";\nimport \"@openzeppelin/contracts/utils/Counters.sol\";\nimport \"@openzeppelin/contracts/access/Ownable.sol\";\n\n\ncontract Deccert is ERC721URIStorage,Ownable{\n\n    using Counters for Counters.Counter;\n\n    Counters.Counter private _tokenIds;\n \n    mapping(address=>uint256) private hasAllowance;\n    //check the string use by the user is not repeat\n    mapping(string=>bool)public _names;\n\n\n    constructor() ERC721(\"Deccert\", \"DECCERT\") {}\n\n    struct Certi {\n        uint256 tokenId;\n        string name;\n        address owner;\n        address previusOwner;\n        uint256 blockNumber;\n        uint256 time;\n    }\n\n\n    \n    mapping(uint256=>Certi) _certificados ;\n    address[] acceptedCoins;\n    uint256[] priceCoins;\n\n    string internal baseURI;\n    uint256 internal currentPrice=10**8 wei;\n\n    //MODIFICADORES\n    modifier canDoIt(){\n        require(hasAllowance[msg.sender]>0,'Has to be more than 0 permissions');\n        hasAllowance[msg.sender]--;\n        _;\n    }\n\n    //Only the owner can call this function to mint NFT\n    function create(string memory _name,string memory _data,address who) external onlyOwner returns(uint256){\n\n      //incrementamos en 1 el contador\n      _tokenIds.increment();\n\n      uint256 newItemId = _tokenIds.current();\n      _mint(msg.sender, newItemId);\n      _setTokenURI(newItemId, _data);\n\n        //Save Certificate object in mapping\n\n        Certi memory newCerti= Certi(\n        _tokenIds.current(),//token id of hashima\n        _name,\n        who,\n        who,\n        block.number,\n        block.timestamp\n        );\n\n      _certificados[newItemId] = newCerti;\n\n      return newItemId;\n\n    }\n\n    function createCertificate(\n      string memory _name,\n      address who) external canDoIt returns (uint256){\n\n      //incrementamos en 1 el contador\n      _tokenIds.increment();\n\n      uint256 newItemId = _tokenIds.current();\n      _mint(msg.sender, newItemId);\n\n\n      Certi memory newCerti= Certi(\n      _tokenIds.current(),//token id of hashima\n      _name,\n      who,\n      who,\n      block.number,\n      block.timestamp\n      );\n\n      _certificados[newItemId] = newCerti;\n\n      return newItemId;\n\n    }\n\n    function givePermission(address _user)public onlyOwner{\n        hasAllowance[_user]=1;\n    }\n\n    //function called by contract owner to give 'minting power' to backend \n    //and third partys.\n   function giveAllowance(address who,uint256 amount)external onlyOwner{\n     hasAllowance[who]=amount;\n  }\n   \n\n    function addCoin(address coinAddress)external onlyOwner{\n        acceptedCoins.push(coinAddress);\n    }\n\n\n    function setPrice(uint256 _newPrice)external onlyOwner{\n        currentPrice=_newPrice;\n    }\n\n    function setPriceERC20(address coin,uint256 _newPrice)external onlyOwner{\n        require(_newPrice>0,'price has to be more than 0');\n        for (uint256 index = 0; index < acceptedCoins.length; index++) {\n            \n            if(acceptedCoins[index]==coin){\n                priceCoins[index]=_newPrice;\n                break;\n            }\n        }\n        \n    }\n\n    function get(uint256 _index)public view returns(Certi memory){\n          return _certificados[_index];\n    }\n  \n    function check(uint256 _index)external view{\n          require(_certificados[_index].owner==msg.sender);\n    }\n\n\n    function getTotal()public view returns(uint256){\n        return(_tokenIds.current());\n    }\n\n    function setBaseURI(string calldata newEntry)external onlyOwner{\n      baseURI=newEntry;\n    }\n\n    function tokenURI(uint256 tokenId) public view override returns (string memory) {\n        require(_exists(tokenId), \"URI query for nonexistent token\");\n\n       return string(abi.encodePacked(baseURI,Strings.toString(tokenId),\".json\"));\n\n    }\n\n\n    \n\n}",
  "sourcePath": "/Users/aarontolentino/Documents/AcademiaCrypto/Deccert/contracts/Deccert.sol",
  "compiler": {
    "name": "solc",
    "version": "0.8.3+commit.8d00100c.Emscripten.clang"
  },
  "schemaVersion": "3.4.1",
  "updatedAt": "2022-06-23T16:45:40.897Z",
  "networkType": "ethereum",
  "devdoc": {
    "kind": "dev",
    "methods": {
      "approve(address,uint256)": {
        "details": "See {IERC721-approve}."
      },
      "balanceOf(address)": {
        "details": "See {IERC721-balanceOf}."
      },
      "getApproved(uint256)": {
        "details": "See {IERC721-getApproved}."
      },
      "isApprovedForAll(address,address)": {
        "details": "See {IERC721-isApprovedForAll}."
      },
      "name()": {
        "details": "See {IERC721Metadata-name}."
      },
      "owner()": {
        "details": "Returns the address of the current owner."
      },
      "ownerOf(uint256)": {
        "details": "See {IERC721-ownerOf}."
      },
      "renounceOwnership()": {
        "details": "Leaves the contract without owner. It will not be possible to call `onlyOwner` functions anymore. Can only be called by the current owner. NOTE: Renouncing ownership will leave the contract without an owner, thereby removing any functionality that is only available to the owner."
      },
      "safeTransferFrom(address,address,uint256)": {
        "details": "See {IERC721-safeTransferFrom}."
      },
      "safeTransferFrom(address,address,uint256,bytes)": {
        "details": "See {IERC721-safeTransferFrom}."
      },
      "setApprovalForAll(address,bool)": {
        "details": "See {IERC721-setApprovalForAll}."
      },
      "supportsInterface(bytes4)": {
        "details": "See {IERC165-supportsInterface}."
      },
      "symbol()": {
        "details": "See {IERC721Metadata-symbol}."
      },
      "tokenURI(uint256)": {
        "details": "See {IERC721Metadata-tokenURI}."
      },
      "transferFrom(address,address,uint256)": {
        "details": "See {IERC721-transferFrom}."
      },
      "transferOwnership(address)": {
        "details": "Transfers ownership of the contract to a new account (`newOwner`). Can only be called by the current owner."
      }
    },
    "version": 1
  },
  "userdoc": {
    "kind": "user",
    "methods": {},
    "version": 1
  }
}