{
  "contractName": "Eddi",
  "abi": [
    {
      "inputs": [
        {
          "internalType": "contract Deccert",
          "name": "deccert_contract",
          "type": "address"
        }
      ],
      "stateMutability": "nonpayable",
      "type": "constructor"
    },
    {
      "anonymous": false,
      "inputs": [
        {
          "indexed": true,
          "internalType": "address",
          "name": "owner",
          "type": "address"
        },
        {
          "indexed": true,
          "internalType": "address",
          "name": "spender",
          "type": "address"
        },
        {
          "indexed": false,
          "internalType": "uint256",
          "name": "value",
          "type": "uint256"
        }
      ],
      "name": "Approval",
      "type": "event"
    },
    {
      "anonymous": false,
      "inputs": [
        {
          "indexed": true,
          "internalType": "address",
          "name": "previousOwner",
          "type": "address"
        },
        {
          "indexed": true,
          "internalType": "address",
          "name": "newOwner",
          "type": "address"
        }
      ],
      "name": "OwnershipTransferred",
      "type": "event"
    },
    {
      "anonymous": false,
      "inputs": [
        {
          "indexed": true,
          "internalType": "address",
          "name": "from",
          "type": "address"
        },
        {
          "indexed": true,
          "internalType": "address",
          "name": "to",
          "type": "address"
        },
        {
          "indexed": false,
          "internalType": "uint256",
          "name": "value",
          "type": "uint256"
        }
      ],
      "name": "Transfer",
      "type": "event"
    },
    {
      "inputs": [],
      "name": "REWARD_PER_BLOCK",
      "outputs": [
        {
          "internalType": "uint256",
          "name": "",
          "type": "uint256"
        }
      ],
      "stateMutability": "view",
      "type": "function",
      "constant": true
    },
    {
      "inputs": [
        {
          "internalType": "string",
          "name": "",
          "type": "string"
        }
      ],
      "name": "_names",
      "outputs": [
        {
          "internalType": "bool",
          "name": "",
          "type": "bool"
        }
      ],
      "stateMutability": "view",
      "type": "function",
      "constant": true
    },
    {
      "inputs": [
        {
          "internalType": "address",
          "name": "owner",
          "type": "address"
        },
        {
          "internalType": "address",
          "name": "spender",
          "type": "address"
        }
      ],
      "name": "allowance",
      "outputs": [
        {
          "internalType": "uint256",
          "name": "",
          "type": "uint256"
        }
      ],
      "stateMutability": "view",
      "type": "function",
      "constant": true
    },
    {
      "inputs": [
        {
          "internalType": "address",
          "name": "spender",
          "type": "address"
        },
        {
          "internalType": "uint256",
          "name": "amount",
          "type": "uint256"
        }
      ],
      "name": "approve",
      "outputs": [
        {
          "internalType": "bool",
          "name": "",
          "type": "bool"
        }
      ],
      "stateMutability": "nonpayable",
      "type": "function"
    },
    {
      "inputs": [
        {
          "internalType": "address",
          "name": "account",
          "type": "address"
        }
      ],
      "name": "balanceOf",
      "outputs": [
        {
          "internalType": "uint256",
          "name": "",
          "type": "uint256"
        }
      ],
      "stateMutability": "view",
      "type": "function",
      "constant": true
    },
    {
      "inputs": [
        {
          "internalType": "address",
          "name": "",
          "type": "address"
        },
        {
          "internalType": "uint256",
          "name": "",
          "type": "uint256"
        }
      ],
      "name": "checkpoints",
      "outputs": [
        {
          "internalType": "uint256",
          "name": "",
          "type": "uint256"
        }
      ],
      "stateMutability": "view",
      "type": "function",
      "constant": true
    },
    {
      "inputs": [],
      "name": "decimals",
      "outputs": [
        {
          "internalType": "uint8",
          "name": "",
          "type": "uint8"
        }
      ],
      "stateMutability": "view",
      "type": "function",
      "constant": true
    },
    {
      "inputs": [
        {
          "internalType": "address",
          "name": "spender",
          "type": "address"
        },
        {
          "internalType": "uint256",
          "name": "subtractedValue",
          "type": "uint256"
        }
      ],
      "name": "decreaseAllowance",
      "outputs": [
        {
          "internalType": "bool",
          "name": "",
          "type": "bool"
        }
      ],
      "stateMutability": "nonpayable",
      "type": "function"
    },
    {
      "inputs": [
        {
          "internalType": "uint256",
          "name": "",
          "type": "uint256"
        }
      ],
      "name": "has_deposited",
      "outputs": [
        {
          "internalType": "bool",
          "name": "",
          "type": "bool"
        }
      ],
      "stateMutability": "view",
      "type": "function",
      "constant": true
    },
    {
      "inputs": [
        {
          "internalType": "address",
          "name": "spender",
          "type": "address"
        },
        {
          "internalType": "uint256",
          "name": "addedValue",
          "type": "uint256"
        }
      ],
      "name": "increaseAllowance",
      "outputs": [
        {
          "internalType": "bool",
          "name": "",
          "type": "bool"
        }
      ],
      "stateMutability": "nonpayable",
      "type": "function"
    },
    {
      "inputs": [],
      "name": "name",
      "outputs": [
        {
          "internalType": "string",
          "name": "",
          "type": "string"
        }
      ],
      "stateMutability": "view",
      "type": "function",
      "constant": true
    },
    {
      "inputs": [],
      "name": "owner",
      "outputs": [
        {
          "internalType": "address",
          "name": "",
          "type": "address"
        }
      ],
      "stateMutability": "view",
      "type": "function",
      "constant": true
    },
    {
      "inputs": [],
      "name": "renounceOwnership",
      "outputs": [],
      "stateMutability": "nonpayable",
      "type": "function"
    },
    {
      "inputs": [
        {
          "internalType": "uint256",
          "name": "",
          "type": "uint256"
        }
      ],
      "name": "staking_accounts",
      "outputs": [
        {
          "internalType": "address",
          "name": "",
          "type": "address"
        }
      ],
      "stateMutability": "view",
      "type": "function",
      "constant": true
    },
    {
      "inputs": [],
      "name": "symbol",
      "outputs": [
        {
          "internalType": "string",
          "name": "",
          "type": "string"
        }
      ],
      "stateMutability": "view",
      "type": "function",
      "constant": true
    },
    {
      "inputs": [],
      "name": "totalSupply",
      "outputs": [
        {
          "internalType": "uint256",
          "name": "",
          "type": "uint256"
        }
      ],
      "stateMutability": "view",
      "type": "function",
      "constant": true
    },
    {
      "inputs": [
        {
          "internalType": "address",
          "name": "to",
          "type": "address"
        },
        {
          "internalType": "uint256",
          "name": "amount",
          "type": "uint256"
        }
      ],
      "name": "transfer",
      "outputs": [
        {
          "internalType": "bool",
          "name": "",
          "type": "bool"
        }
      ],
      "stateMutability": "nonpayable",
      "type": "function"
    },
    {
      "inputs": [
        {
          "internalType": "address",
          "name": "from",
          "type": "address"
        },
        {
          "internalType": "address",
          "name": "to",
          "type": "address"
        },
        {
          "internalType": "uint256",
          "name": "amount",
          "type": "uint256"
        }
      ],
      "name": "transferFrom",
      "outputs": [
        {
          "internalType": "bool",
          "name": "",
          "type": "bool"
        }
      ],
      "stateMutability": "nonpayable",
      "type": "function"
    },
    {
      "inputs": [
        {
          "internalType": "address",
          "name": "newOwner",
          "type": "address"
        }
      ],
      "name": "transferOwnership",
      "outputs": [],
      "stateMutability": "nonpayable",
      "type": "function"
    },
    {
      "inputs": [
        {
          "internalType": "uint256",
          "name": "tokenId",
          "type": "uint256"
        }
      ],
      "name": "aprovar",
      "outputs": [],
      "stateMutability": "nonpayable",
      "type": "function"
    },
    {
      "inputs": [
        {
          "internalType": "uint256",
          "name": "tokenId",
          "type": "uint256"
        }
      ],
      "name": "deposit",
      "outputs": [],
      "stateMutability": "nonpayable",
      "type": "function"
    },
    {
      "inputs": [
        {
          "internalType": "uint256",
          "name": "tokenId",
          "type": "uint256"
        }
      ],
      "name": "withdraw",
      "outputs": [],
      "stateMutability": "nonpayable",
      "type": "function"
    },
    {
      "inputs": [
        {
          "internalType": "address",
          "name": "beneficiary",
          "type": "address"
        },
        {
          "internalType": "uint256",
          "name": "tokenId",
          "type": "uint256"
        }
      ],
      "name": "collect",
      "outputs": [],
      "stateMutability": "nonpayable",
      "type": "function"
    },
    {
      "inputs": [
        {
          "internalType": "uint256",
          "name": "tokenId",
          "type": "uint256"
        }
      ],
      "name": "hashimaOnStaking",
      "outputs": [
        {
          "internalType": "bool",
          "name": "",
          "type": "bool"
        }
      ],
      "stateMutability": "view",
      "type": "function",
      "constant": true
    },
    {
      "inputs": [
        {
          "internalType": "address",
          "name": "beneficiary",
          "type": "address"
        },
        {
          "internalType": "uint256",
          "name": "tokenId",
          "type": "uint256"
        }
      ],
      "name": "calculateReward",
      "outputs": [
        {
          "internalType": "uint256",
          "name": "",
          "type": "uint256"
        }
      ],
      "stateMutability": "view",
      "type": "function",
      "constant": true
    }
  ],
  "bytecode": "0x608060405260646009553480156200001657600080fd5b50604051620030f7380380620030f783398181016040528101906200003c919062000483565b6040518060400160405280600981526020017f456475636174696f6e00000000000000000000000000000000000000000000008152506040518060400160405280600481526020017f45444449000000000000000000000000000000000000000000000000000000008152508160039080519060200190620000c0929190620003bc565b508060049080519060200190620000d9929190620003bc565b505050620000fc620000f06200016b60201b60201c565b6200017360201b60201c565b620001233374029c30f1029939b146664242d97d9f6490000000006200023960201b60201c565b80600c60006101000a81548173ffffffffffffffffffffffffffffffffffffffff021916908373ffffffffffffffffffffffffffffffffffffffff16021790555050620006bd565b600033905090565b6000600560009054906101000a900473ffffffffffffffffffffffffffffffffffffffff16905081600560006101000a81548173ffffffffffffffffffffffffffffffffffffffff021916908373ffffffffffffffffffffffffffffffffffffffff1602179055508173ffffffffffffffffffffffffffffffffffffffff168173ffffffffffffffffffffffffffffffffffffffff167f8be0079c531659141344cd1fd0a4f28419497f9722a3daafe3b4186f6b6457e060405160405180910390a35050565b600073ffffffffffffffffffffffffffffffffffffffff168273ffffffffffffffffffffffffffffffffffffffff161415620002ac576040517f08c379a0000000000000000000000000000000000000000000000000000000008152600401620002a390620004e7565b60405180910390fd5b620002c060008383620003b260201b60201c565b8060026000828254620002d4919062000537565b92505081905550806000808473ffffffffffffffffffffffffffffffffffffffff1673ffffffffffffffffffffffffffffffffffffffff16815260200190815260200160002060008282546200032b919062000537565b925050819055508173ffffffffffffffffffffffffffffffffffffffff16600073ffffffffffffffffffffffffffffffffffffffff167fddf252ad1be2c89b69c2b068fc378daa952ba7f163c4a11628f55a4df523b3ef8360405162000392919062000509565b60405180910390a3620003ae60008383620003b760201b60201c565b5050565b505050565b505050565b828054620003ca90620005e6565b90600052602060002090601f016020900481019282620003ee57600085556200043a565b82601f106200040957805160ff19168380011785556200043a565b828001600101855582156200043a579182015b82811115620004395782518255916020019190600101906200041c565b5b5090506200044991906200044d565b5090565b5b80821115620004685760008160009055506001016200044e565b5090565b6000815190506200047d81620006a3565b92915050565b6000602082840312156200049657600080fd5b6000620004a6848285016200046c565b91505092915050565b6000620004be601f8362000526565b9150620004cb826200067a565b602082019050919050565b620004e181620005dc565b82525050565b600060208201905081810360008301526200050281620004af565b9050919050565b6000602082019050620005206000830184620004d6565b92915050565b600082825260208201905092915050565b60006200054482620005dc565b91506200055183620005dc565b9250827fffffffffffffffffffffffffffffffffffffffffffffffffffffffffffffffff038211156200058957620005886200061c565b5b828201905092915050565b6000620005a182620005bc565b9050919050565b6000620005b58262000594565b9050919050565b600073ffffffffffffffffffffffffffffffffffffffff82169050919050565b6000819050919050565b60006002820490506001821680620005ff57607f821691505b602082108114156200061657620006156200064b565b5b50919050565b7f4e487b7100000000000000000000000000000000000000000000000000000000600052601160045260246000fd5b7f4e487b7100000000000000000000000000000000000000000000000000000000600052602260045260246000fd5b7f45524332303a206d696e7420746f20746865207a65726f206164647265737300600082015250565b620006ae81620005a8565b8114620006ba57600080fd5b50565b612a2a80620006cd6000396000f3fe608060405234801561001057600080fd5b50600436106101735760003560e01c806370a08231116100de578063a9059cbb11610097578063d1760fac11610071578063d1760fac14610486578063dd62ed3e146104b6578063e68039c6146104e6578063f2fde38b1461051657610173565b8063a9059cbb1461040a578063af9d16321461043a578063b6b55f251461046a57610173565b806370a0823114610346578063715018a6146103765780638da5cb5b1461038057806395d89b411461039e578063975532dc146103bc578063a457c2d7146103da57610173565b80632e1a7d4d116101305780632e1a7d4d14610274578063313ce5671461029057806338608235146102ae57806339509351146102de57806357ddb1ed1461030e5780636b8357ac1461032a57610173565b806306fdde0314610178578063095ea7b3146101965780630cdfebfa146101c657806318160ddd146101f65780631852e8d91461021457806323b872dd14610244575b600080fd5b610180610532565b60405161018d9190612118565b60405180910390f35b6101b060048036038101906101ab9190611d19565b6105c4565b6040516101bd91906120fd565b60405180910390f35b6101e060048036038101906101db9190611d19565b6105e7565b6040516101ed919061231a565b60405180910390f35b6101fe61060c565b60405161020b919061231a565b60405180910390f35b61022e60048036038101906102299190611d19565b610616565b60405161023b919061231a565b60405180910390f35b61025e60048036038101906102599190611cca565b6106be565b60405161026b91906120fd565b60405180910390f35b61028e60048036038101906102899190611dd7565b6106ed565b005b6102986108b8565b6040516102a59190612335565b60405180910390f35b6102c860048036038101906102c39190611dd7565b6108c1565b6040516102d591906120fd565b60405180910390f35b6102f860048036038101906102f39190611d19565b6108eb565b60405161030591906120fd565b60405180910390f35b61032860048036038101906103239190611dd7565b610995565b005b610344600480360381019061033f9190611d19565b610a27565b005b610360600480360381019061035b9190611c3c565b610a99565b60405161036d919061231a565b60405180910390f35b61037e610ae1565b005b610388610b69565b6040516103959190612082565b60405180910390f35b6103a6610b93565b6040516103b39190612118565b60405180910390f35b6103c4610c25565b6040516103d1919061231a565b60405180910390f35b6103f460048036038101906103ef9190611d19565b610c2b565b60405161040191906120fd565b60405180910390f35b610424600480360381019061041f9190611d19565b610d15565b60405161043191906120fd565b60405180910390f35b610454600480360381019061044f9190611dd7565b610d38565b60405161046191906120fd565b60405180910390f35b610484600480360381019061047f9190611dd7565b610d58565b005b6104a0600480360381019061049b9190611d55565b61112b565b6040516104ad91906120fd565b60405180910390f35b6104d060048036038101906104cb9190611c8e565b611161565b6040516104dd919061231a565b60405180910390f35b61050060048036038101906104fb9190611dd7565b6111e8565b60405161050d9190612082565b60405180910390f35b610530600480360381019061052b9190611c3c565b61121b565b005b6060600380546105419061253d565b80601f016020809104026020016040519081016040528092919081815260200182805461056d9061253d565b80156105ba5780601f1061058f576101008083540402835291602001916105ba565b820191906000526020600020905b81548152906001019060200180831161059d57829003601f168201915b5050505050905090565b6000806105cf611313565b90506105dc81858561131b565b600191505092915050565b6006602052816000526040600020602052806000526040600020600091509150505481565b6000600254905090565b60006007600083815260200190815260200160002060009054906101000a900460ff1661064657600090506106b8565b6000600660008573ffffffffffffffffffffffffffffffffffffffff1673ffffffffffffffffffffffffffffffffffffffff168152602001908152602001600020600084815260200190815260200160002054905080436106a79190612472565b6009546106b49190612418565b9150505b92915050565b6000806106c9611313565b90506106d68582856114e6565b6106e1858585611572565b60019150509392505050565b6007600082815260200190815260200160002060009054906101000a900460ff1661074d576040517f08c379a0000000000000000000000000000000000000000000000000000000008152600401610744906121fa565b60405180910390fd5b3373ffffffffffffffffffffffffffffffffffffffff166008600083815260200190815260200160002060009054906101000a900473ffffffffffffffffffffffffffffffffffffffff1673ffffffffffffffffffffffffffffffffffffffff16146107ee576040517f08c379a00000000000000000000000000000000000000000000000000000000081526004016107e59061217a565b60405180910390fd5b6107f83382610a27565b600c60009054906101000a900473ffffffffffffffffffffffffffffffffffffffff1673ffffffffffffffffffffffffffffffffffffffff166323b872dd3033846040518463ffffffff1660e01b81526004016108579392919061209d565b600060405180830381600087803b15801561087157600080fd5b505af1158015610885573d6000803e3d6000fd5b5050505060006007600083815260200190815260200160002060006101000a81548160ff02191690831515021790555050565b60006012905090565b60006007600083815260200190815260200160002060009054906101000a900460ff169050919050565b6000806108f6611313565b905061098a818585600160008673ffffffffffffffffffffffffffffffffffffffff1673ffffffffffffffffffffffffffffffffffffffff16815260200190815260200160002060008973ffffffffffffffffffffffffffffffffffffffff1673ffffffffffffffffffffffffffffffffffffffff1681526020019081526020016000205461098591906123c2565b61131b565b600191505092915050565b600c60009054906101000a900473ffffffffffffffffffffffffffffffffffffffff1673ffffffffffffffffffffffffffffffffffffffff1663095ea7b330836040518363ffffffff1660e01b81526004016109f29291906120d4565b600060405180830381600087803b158015610a0c57600080fd5b505af1158015610a20573d6000803e3d6000fd5b5050505050565b6000610a338383610616565b905043600660008573ffffffffffffffffffffffffffffffffffffffff1673ffffffffffffffffffffffffffffffffffffffff168152602001908152602001600020600084815260200190815260200160002081905550610a9433826117f3565b505050565b60008060008373ffffffffffffffffffffffffffffffffffffffff1673ffffffffffffffffffffffffffffffffffffffff168152602001908152602001600020549050919050565b610ae9611313565b73ffffffffffffffffffffffffffffffffffffffff16610b07610b69565b73ffffffffffffffffffffffffffffffffffffffff1614610b5d576040517f08c379a0000000000000000000000000000000000000000000000000000000008152600401610b549061227a565b60405180910390fd5b610b676000611953565b565b6000600560009054906101000a900473ffffffffffffffffffffffffffffffffffffffff16905090565b606060048054610ba29061253d565b80601f0160208091040260200160405190810160405280929190818152602001828054610bce9061253d565b8015610c1b5780601f10610bf057610100808354040283529160200191610c1b565b820191906000526020600020905b815481529060010190602001808311610bfe57829003601f168201915b5050505050905090565b60095481565b600080610c36611313565b90506000600160008373ffffffffffffffffffffffffffffffffffffffff1673ffffffffffffffffffffffffffffffffffffffff16815260200190815260200160002060008673ffffffffffffffffffffffffffffffffffffffff1673ffffffffffffffffffffffffffffffffffffffff16815260200190815260200160002054905083811015610cfc576040517f08c379a0000000000000000000000000000000000000000000000000000000008152600401610cf3906122da565b60405180910390fd5b610d09828686840361131b565b60019250505092915050565b600080610d20611313565b9050610d2d818585611572565b600191505092915050565b60076020528060005260406000206000915054906101000a900460ff1681565b600c60009054906101000a900473ffffffffffffffffffffffffffffffffffffffff1673ffffffffffffffffffffffffffffffffffffffff16636352211e826040518263ffffffff1660e01b8152600401610db3919061231a565b60206040518083038186803b158015610dcb57600080fd5b505afa158015610ddf573d6000803e3d6000fd5b505050506040513d601f19601f82011682018060405250810190610e039190611c65565b73ffffffffffffffffffffffffffffffffffffffff163373ffffffffffffffffffffffffffffffffffffffff1614610e70576040517f08c379a0000000000000000000000000000000000000000000000000000000008152600401610e679061221a565b60405180910390fd5b6007600082815260200190815260200160002060009054906101000a900460ff1615610ed1576040517f08c379a0000000000000000000000000000000000000000000000000000000008152600401610ec89061225a565b60405180910390fd5b600c60009054906101000a900473ffffffffffffffffffffffffffffffffffffffff1673ffffffffffffffffffffffffffffffffffffffff16639507d39a826040518263ffffffff1660e01b8152600401610f2c919061231a565b60006040518083038186803b158015610f4457600080fd5b505afa158015610f58573d6000803e3d6000fd5b505050506040513d6000823e3d601f19601f82011682018060405250810190610f819190611d96565b60a00151610fc4576040517f08c379a0000000000000000000000000000000000000000000000000000000008152600401610fbb9061215a565b60405180910390fd5b43600660003373ffffffffffffffffffffffffffffffffffffffff1673ffffffffffffffffffffffffffffffffffffffff168152602001908152602001600020600083815260200190815260200160002081905550336008600083815260200190815260200160002060006101000a81548173ffffffffffffffffffffffffffffffffffffffff021916908373ffffffffffffffffffffffffffffffffffffffff160217905550600c60009054906101000a900473ffffffffffffffffffffffffffffffffffffffff1673ffffffffffffffffffffffffffffffffffffffff166323b872dd3330846040518463ffffffff1660e01b81526004016110ca9392919061209d565b600060405180830381600087803b1580156110e457600080fd5b505af11580156110f8573d6000803e3d6000fd5b5050505060016007600083815260200190815260200160002060006101000a81548160ff02191690831515021790555050565b600b818051602081018201805184825260208301602085012081835280955050505050506000915054906101000a900460ff1681565b6000600160008473ffffffffffffffffffffffffffffffffffffffff1673ffffffffffffffffffffffffffffffffffffffff16815260200190815260200160002060008373ffffffffffffffffffffffffffffffffffffffff1673ffffffffffffffffffffffffffffffffffffffff16815260200190815260200160002054905092915050565b60086020528060005260406000206000915054906101000a900473ffffffffffffffffffffffffffffffffffffffff1681565b611223611313565b73ffffffffffffffffffffffffffffffffffffffff16611241610b69565b73ffffffffffffffffffffffffffffffffffffffff1614611297576040517f08c379a000000000000000000000000000000000000000000000000000000000815260040161128e9061227a565b60405180910390fd5b600073ffffffffffffffffffffffffffffffffffffffff168173ffffffffffffffffffffffffffffffffffffffff161415611307576040517f08c379a00000000000000000000000000000000000000000000000000000000081526004016112fe9061219a565b60405180910390fd5b61131081611953565b50565b600033905090565b600073ffffffffffffffffffffffffffffffffffffffff168373ffffffffffffffffffffffffffffffffffffffff16141561138b576040517f08c379a0000000000000000000000000000000000000000000000000000000008152600401611382906122ba565b60405180910390fd5b600073ffffffffffffffffffffffffffffffffffffffff168273ffffffffffffffffffffffffffffffffffffffff1614156113fb576040517f08c379a00000000000000000000000000000000000000000000000000000000081526004016113f2906121ba565b60405180910390fd5b80600160008573ffffffffffffffffffffffffffffffffffffffff1673ffffffffffffffffffffffffffffffffffffffff16815260200190815260200160002060008473ffffffffffffffffffffffffffffffffffffffff1673ffffffffffffffffffffffffffffffffffffffff168152602001908152602001600020819055508173ffffffffffffffffffffffffffffffffffffffff168373ffffffffffffffffffffffffffffffffffffffff167f8c5be1e5ebec7d5bd14f71427d1e84f3dd0314c0f7b2291e5b200ac8c7c3b925836040516114d9919061231a565b60405180910390a3505050565b60006114f28484611161565b90507fffffffffffffffffffffffffffffffffffffffffffffffffffffffffffffffff811461156c578181101561155e576040517f08c379a0000000000000000000000000000000000000000000000000000000008152600401611555906121da565b60405180910390fd5b61156b848484840361131b565b5b50505050565b600073ffffffffffffffffffffffffffffffffffffffff168373ffffffffffffffffffffffffffffffffffffffff1614156115e2576040517f08c379a00000000000000000000000000000000000000000000000000000000081526004016115d99061229a565b60405180910390fd5b600073ffffffffffffffffffffffffffffffffffffffff168273ffffffffffffffffffffffffffffffffffffffff161415611652576040517f08c379a00000000000000000000000000000000000000000000000000000000081526004016116499061213a565b60405180910390fd5b61165d838383611a19565b60008060008573ffffffffffffffffffffffffffffffffffffffff1673ffffffffffffffffffffffffffffffffffffffff168152602001908152602001600020549050818110156116e3576040517f08c379a00000000000000000000000000000000000000000000000000000000081526004016116da9061223a565b60405180910390fd5b8181036000808673ffffffffffffffffffffffffffffffffffffffff1673ffffffffffffffffffffffffffffffffffffffff16815260200190815260200160002081905550816000808573ffffffffffffffffffffffffffffffffffffffff1673ffffffffffffffffffffffffffffffffffffffff168152602001908152602001600020600082825461177691906123c2565b925050819055508273ffffffffffffffffffffffffffffffffffffffff168473ffffffffffffffffffffffffffffffffffffffff167fddf252ad1be2c89b69c2b068fc378daa952ba7f163c4a11628f55a4df523b3ef846040516117da919061231a565b60405180910390a36117ed848484611a1e565b50505050565b600073ffffffffffffffffffffffffffffffffffffffff168273ffffffffffffffffffffffffffffffffffffffff161415611863576040517f08c379a000000000000000000000000000000000000000000000000000000000815260040161185a906122fa565b60405180910390fd5b61186f60008383611a19565b806002600082825461188191906123c2565b92505081905550806000808473ffffffffffffffffffffffffffffffffffffffff1673ffffffffffffffffffffffffffffffffffffffff16815260200190815260200160002060008282546118d691906123c2565b925050819055508173ffffffffffffffffffffffffffffffffffffffff16600073ffffffffffffffffffffffffffffffffffffffff167fddf252ad1be2c89b69c2b068fc378daa952ba7f163c4a11628f55a4df523b3ef8360405161193b919061231a565b60405180910390a361194f60008383611a1e565b5050565b6000600560009054906101000a900473ffffffffffffffffffffffffffffffffffffffff16905081600560006101000a81548173ffffffffffffffffffffffffffffffffffffffff021916908373ffffffffffffffffffffffffffffffffffffffff1602179055508173ffffffffffffffffffffffffffffffffffffffff168173ffffffffffffffffffffffffffffffffffffffff167f8be0079c531659141344cd1fd0a4f28419497f9722a3daafe3b4186f6b6457e060405160405180910390a35050565b505050565b505050565b6000611a36611a3184612375565b612350565b905082815260208101848484011115611a4e57600080fd5b611a598482856124fb565b509392505050565b6000611a74611a6f84612375565b612350565b905082815260208101848484011115611a8c57600080fd5b611a9784828561250a565b509392505050565b600081359050611aae816129af565b92915050565b600081519050611ac3816129af565b92915050565b600081519050611ad8816129c6565b92915050565b600082601f830112611aef57600080fd5b8135611aff848260208601611a23565b91505092915050565b600082601f830112611b1957600080fd5b8151611b29848260208601611a61565b91505092915050565b600060e08284031215611b4457600080fd5b611b4e60e0612350565b90506000611b5e84828501611c27565b600083015250602082015167ffffffffffffffff811115611b7e57600080fd5b611b8a84828501611b08565b602083015250604082015167ffffffffffffffff811115611baa57600080fd5b611bb684828501611b08565b6040830152506060611bca84828501611ab4565b6060830152506080611bde84828501611ab4565b60808301525060a0611bf284828501611ac9565b60a08301525060c0611c0684828501611c27565b60c08301525092915050565b600081359050611c21816129dd565b92915050565b600081519050611c36816129dd565b92915050565b600060208284031215611c4e57600080fd5b6000611c5c84828501611a9f565b91505092915050565b600060208284031215611c7757600080fd5b6000611c8584828501611ab4565b91505092915050565b60008060408385031215611ca157600080fd5b6000611caf85828601611a9f565b9250506020611cc085828601611a9f565b9150509250929050565b600080600060608486031215611cdf57600080fd5b6000611ced86828701611a9f565b9350506020611cfe86828701611a9f565b9250506040611d0f86828701611c12565b9150509250925092565b60008060408385031215611d2c57600080fd5b6000611d3a85828601611a9f565b9250506020611d4b85828601611c12565b9150509250929050565b600060208284031215611d6757600080fd5b600082013567ffffffffffffffff811115611d8157600080fd5b611d8d84828501611ade565b91505092915050565b600060208284031215611da857600080fd5b600082015167ffffffffffffffff811115611dc257600080fd5b611dce84828501611b32565b91505092915050565b600060208284031215611de957600080fd5b6000611df784828501611c12565b91505092915050565b611e09816124a6565b82525050565b611e18816124b8565b82525050565b6000611e29826123a6565b611e3381856123b1565b9350611e4381856020860161250a565b611e4c8161262d565b840191505092915050565b6000611e646023836123b1565b9150611e6f8261263e565b604082019050919050565b6000611e87600e836123b1565b9150611e928261268d565b602082019050919050565b6000611eaa600f836123b1565b9150611eb5826126b6565b602082019050919050565b6000611ecd6026836123b1565b9150611ed8826126df565b604082019050919050565b6000611ef06022836123b1565b9150611efb8261272e565b604082019050919050565b6000611f13601d836123b1565b9150611f1e8261277d565b602082019050919050565b6000611f366015836123b1565b9150611f41826127a6565b602082019050919050565b6000611f596014836123b1565b9150611f64826127cf565b602082019050919050565b6000611f7c6026836123b1565b9150611f87826127f8565b604082019050919050565b6000611f9f6018836123b1565b9150611faa82612847565b602082019050919050565b6000611fc26020836123b1565b9150611fcd82612870565b602082019050919050565b6000611fe56025836123b1565b9150611ff082612899565b604082019050919050565b60006120086024836123b1565b9150612013826128e8565b604082019050919050565b600061202b6025836123b1565b915061203682612937565b604082019050919050565b600061204e601f836123b1565b915061205982612986565b602082019050919050565b61206d816124e4565b82525050565b61207c816124ee565b82525050565b60006020820190506120976000830184611e00565b92915050565b60006060820190506120b26000830186611e00565b6120bf6020830185611e00565b6120cc6040830184612064565b949350505050565b60006040820190506120e96000830185611e00565b6120f66020830184612064565b9392505050565b60006020820190506121126000830184611e0f565b92915050565b600060208201905081810360008301526121328184611e1e565b905092915050565b6000602082019050818103600083015261215381611e57565b9050919050565b6000602082019050818103600083015261217381611e7a565b9050919050565b6000602082019050818103600083015261219381611e9d565b9050919050565b600060208201905081810360008301526121b381611ec0565b9050919050565b600060208201905081810360008301526121d381611ee3565b9050919050565b600060208201905081810360008301526121f381611f06565b9050919050565b6000602082019050818103600083015261221381611f29565b9050919050565b6000602082019050818103600083015261223381611f4c565b9050919050565b6000602082019050818103600083015261225381611f6f565b9050919050565b6000602082019050818103600083015261227381611f92565b9050919050565b6000602082019050818103600083015261229381611fb5565b9050919050565b600060208201905081810360008301526122b381611fd8565b9050919050565b600060208201905081810360008301526122d381611ffb565b9050919050565b600060208201905081810360008301526122f38161201e565b9050919050565b6000602082019050818103600083015261231381612041565b9050919050565b600060208201905061232f6000830184612064565b92915050565b600060208201905061234a6000830184612073565b92915050565b600061235a61236b565b9050612366828261256f565b919050565b6000604051905090565b600067ffffffffffffffff8211156123905761238f6125fe565b5b6123998261262d565b9050602081019050919050565b600081519050919050565b600082825260208201905092915050565b60006123cd826124e4565b91506123d8836124e4565b9250827fffffffffffffffffffffffffffffffffffffffffffffffffffffffffffffffff0382111561240d5761240c6125a0565b5b828201905092915050565b6000612423826124e4565b915061242e836124e4565b9250817fffffffffffffffffffffffffffffffffffffffffffffffffffffffffffffffff0483118215151615612467576124666125a0565b5b828202905092915050565b600061247d826124e4565b9150612488836124e4565b92508282101561249b5761249a6125a0565b5b828203905092915050565b60006124b1826124c4565b9050919050565b60008115159050919050565b600073ffffffffffffffffffffffffffffffffffffffff82169050919050565b6000819050919050565b600060ff82169050919050565b82818337600083830152505050565b60005b8381101561252857808201518184015260208101905061250d565b83811115612537576000848401525b50505050565b6000600282049050600182168061255557607f821691505b60208210811415612569576125686125cf565b5b50919050565b6125788261262d565b810181811067ffffffffffffffff82111715612597576125966125fe565b5b80604052505050565b7f4e487b7100000000000000000000000000000000000000000000000000000000600052601160045260246000fd5b7f4e487b7100000000000000000000000000000000000000000000000000000000600052602260045260246000fd5b7f4e487b7100000000000000000000000000000000000000000000000000000000600052604160045260246000fd5b6000601f19601f8301169050919050565b7f45524332303a207472616e7366657220746f20746865207a65726f206164647260008201527f6573730000000000000000000000000000000000000000000000000000000000602082015250565b7f48617320746f206265207369676e000000000000000000000000000000000000600082015250565b7f4f6e6c7920746865205374616b65720000000000000000000000000000000000600082015250565b7f4f776e61626c653a206e6577206f776e657220697320746865207a65726f206160008201527f6464726573730000000000000000000000000000000000000000000000000000602082015250565b7f45524332303a20617070726f766520746f20746865207a65726f20616464726560008201527f7373000000000000000000000000000000000000000000000000000000000000602082015250565b7f45524332303a20696e73756666696369656e7420616c6c6f77616e6365000000600082015250565b7f4e6f20746f6b656e7320746f2077697468646172770000000000000000000000600082015250565b7f53656e646572206d757374206265206f776e6572000000000000000000000000600082015250565b7f45524332303a207472616e7366657220616d6f756e742065786365656473206260008201527f616c616e63650000000000000000000000000000000000000000000000000000602082015250565b7f53656e64657220616c7265616479206465706f73697465640000000000000000600082015250565b7f4f776e61626c653a2063616c6c6572206973206e6f7420746865206f776e6572600082015250565b7f45524332303a207472616e736665722066726f6d20746865207a65726f20616460008201527f6472657373000000000000000000000000000000000000000000000000000000602082015250565b7f45524332303a20617070726f76652066726f6d20746865207a65726f2061646460008201527f7265737300000000000000000000000000000000000000000000000000000000602082015250565b7f45524332303a2064656372656173656420616c6c6f77616e63652062656c6f7760008201527f207a65726f000000000000000000000000000000000000000000000000000000602082015250565b7f45524332303a206d696e7420746f20746865207a65726f206164647265737300600082015250565b6129b8816124a6565b81146129c357600080fd5b50565b6129cf816124b8565b81146129da57600080fd5b50565b6129e6816124e4565b81146129f157600080fd5b5056fea26469706673582212208744b86cb95200cedde9843cc73531b7536421f20d799288021fcc3c9f90317164736f6c63430008030033",
  "immutableReferences": {},
  "source": "// SPDX-License-Identifier: MIT\npragma solidity ^0.8.0;\n\nimport \"@openzeppelin/contracts/token/ERC20/ERC20.sol\";\nimport \"@openzeppelin/contracts/utils/Counters.sol\";\nimport \"@openzeppelin/contracts/access/Ownable.sol\";\nimport \"./Deccert.sol\";\n\n\ncontract Eddi is ERC20,Ownable{\n\n    mapping(address => mapping(uint256=>uint256)) public checkpoints;\n    mapping(uint256 => bool) public has_deposited;\n    mapping(uint256 => address) public staking_accounts;\n\n\n    uint public REWARD_PER_BLOCK = 100;\n \n    mapping(address=>uint256) private tolerance;\n    //check the string use by the user is not repeat\n    mapping(string=>bool)public _names;\n\n    Deccert private contratoBase;\n    constructor(Deccert deccert_contract) ERC20(\"Education\", \"EDDI\") {\n      _mint(msg.sender, 500**18);\n      contratoBase=deccert_contract;\n    }\n    \n    function aprovar(uint256 tokenId)external{\n        contratoBase.approve(address(this), tokenId);\n    }\n\n    function deposit(uint256 tokenId) external{\n        require (msg.sender == contratoBase.ownerOf(tokenId), 'Sender must be owner');\n        require (!has_deposited[tokenId], 'Sender already deposited');\n        require(contratoBase.get(tokenId).signed,\"Has to be sign\");\n        //La altura del bloque de partida\n        checkpoints[msg.sender][tokenId] = block.number;\n        staking_accounts[tokenId]=msg.sender;\n        \n        contratoBase.transferFrom(msg.sender, address(this), tokenId);\n      \n        has_deposited[tokenId]=true;\n   }\n\n    function withdraw(uint256 tokenId) external{\n        require(has_deposited[tokenId], 'No tokens to withdarw');\n        require(staking_accounts[tokenId]==msg.sender,'Only the Staker');\n        collect(msg.sender,tokenId);\n        contratoBase.transferFrom(address(this), msg.sender, tokenId);\n        \n        has_deposited[tokenId]=false;\n    }\n\n    function collect(address beneficiary,uint256 tokenId) public{\n        uint256 reward = calculateReward(beneficiary,tokenId);\n        checkpoints[beneficiary][tokenId] = block.number;      \n        _mint(msg.sender, reward);\n    }\n\n    function hashimaOnStaking(uint256 tokenId)public view returns(bool){\n        return has_deposited[tokenId];\n    }\n\n    function calculateReward(address beneficiary,uint256 tokenId) public view returns(uint256){\n        if(!has_deposited[tokenId])return 0;\n        \n        uint256 checkpoint = checkpoints[beneficiary][tokenId];\n        return REWARD_PER_BLOCK*(block.number-checkpoint);\n    }\n\n\n\n}\n",
  "sourcePath": "/Users/aarontolentino/Documents/AcademiaCrypto/Deccert/contracts/Eddi.sol",
  "compiler": {
    "name": "solc",
    "version": "0.8.3+commit.8d00100c.Emscripten.clang"
  },
  "schemaVersion": "3.4.1",
  "updatedAt": "2022-06-08T02:29:26.073Z",
  "networkType": "ethereum",
  "devdoc": {
    "kind": "dev",
    "methods": {
      "allowance(address,address)": {
        "details": "See {IERC20-allowance}."
      },
      "approve(address,uint256)": {
        "details": "See {IERC20-approve}. NOTE: If `amount` is the maximum `uint256`, the allowance is not updated on `transferFrom`. This is semantically equivalent to an infinite approval. Requirements: - `spender` cannot be the zero address."
      },
      "balanceOf(address)": {
        "details": "See {IERC20-balanceOf}."
      },
      "decimals()": {
        "details": "Returns the number of decimals used to get its user representation. For example, if `decimals` equals `2`, a balance of `505` tokens should be displayed to a user as `5.05` (`505 / 10 ** 2`). Tokens usually opt for a value of 18, imitating the relationship between Ether and Wei. This is the value {ERC20} uses, unless this function is overridden; NOTE: This information is only used for _display_ purposes: it in no way affects any of the arithmetic of the contract, including {IERC20-balanceOf} and {IERC20-transfer}."
      },
      "decreaseAllowance(address,uint256)": {
        "details": "Atomically decreases the allowance granted to `spender` by the caller. This is an alternative to {approve} that can be used as a mitigation for problems described in {IERC20-approve}. Emits an {Approval} event indicating the updated allowance. Requirements: - `spender` cannot be the zero address. - `spender` must have allowance for the caller of at least `subtractedValue`."
      },
      "increaseAllowance(address,uint256)": {
        "details": "Atomically increases the allowance granted to `spender` by the caller. This is an alternative to {approve} that can be used as a mitigation for problems described in {IERC20-approve}. Emits an {Approval} event indicating the updated allowance. Requirements: - `spender` cannot be the zero address."
      },
      "name()": {
        "details": "Returns the name of the token."
      },
      "owner()": {
        "details": "Returns the address of the current owner."
      },
      "renounceOwnership()": {
        "details": "Leaves the contract without owner. It will not be possible to call `onlyOwner` functions anymore. Can only be called by the current owner. NOTE: Renouncing ownership will leave the contract without an owner, thereby removing any functionality that is only available to the owner."
      },
      "symbol()": {
        "details": "Returns the symbol of the token, usually a shorter version of the name."
      },
      "totalSupply()": {
        "details": "See {IERC20-totalSupply}."
      },
      "transfer(address,uint256)": {
        "details": "See {IERC20-transfer}. Requirements: - `to` cannot be the zero address. - the caller must have a balance of at least `amount`."
      },
      "transferFrom(address,address,uint256)": {
        "details": "See {IERC20-transferFrom}. Emits an {Approval} event indicating the updated allowance. This is not required by the EIP. See the note at the beginning of {ERC20}. NOTE: Does not update the allowance if the current allowance is the maximum `uint256`. Requirements: - `from` and `to` cannot be the zero address. - `from` must have a balance of at least `amount`. - the caller must have allowance for ``from``'s tokens of at least `amount`."
      },
      "transferOwnership(address)": {
        "details": "Transfers ownership of the contract to a new account (`newOwner`). Can only be called by the current owner."
      }
    },
    "version": 1
  },
  "userdoc": {
    "kind": "user",
    "methods": {},
    "version": 1
  }
}