{
  "contractName": "StakingContract",
  "abi": [
    {
      "inputs": [
        {
          "internalType": "contract Deccert",
          "name": "deccert_contract",
          "type": "address"
        }
      ],
      "stateMutability": "nonpayable",
      "type": "constructor"
    },
    {
      "anonymous": false,
      "inputs": [
        {
          "indexed": true,
          "internalType": "address",
          "name": "owner",
          "type": "address"
        },
        {
          "indexed": true,
          "internalType": "address",
          "name": "spender",
          "type": "address"
        },
        {
          "indexed": false,
          "internalType": "uint256",
          "name": "value",
          "type": "uint256"
        }
      ],
      "name": "Approval",
      "type": "event"
    },
    {
      "anonymous": false,
      "inputs": [
        {
          "indexed": true,
          "internalType": "address",
          "name": "previousOwner",
          "type": "address"
        },
        {
          "indexed": true,
          "internalType": "address",
          "name": "newOwner",
          "type": "address"
        }
      ],
      "name": "OwnershipTransferred",
      "type": "event"
    },
    {
      "anonymous": false,
      "inputs": [
        {
          "indexed": true,
          "internalType": "address",
          "name": "from",
          "type": "address"
        },
        {
          "indexed": true,
          "internalType": "address",
          "name": "to",
          "type": "address"
        },
        {
          "indexed": false,
          "internalType": "uint256",
          "name": "value",
          "type": "uint256"
        }
      ],
      "name": "Transfer",
      "type": "event"
    },
    {
      "inputs": [],
      "name": "REWARD_PER_BLOCK",
      "outputs": [
        {
          "internalType": "uint256",
          "name": "",
          "type": "uint256"
        }
      ],
      "stateMutability": "view",
      "type": "function",
      "constant": true
    },
    {
      "inputs": [
        {
          "internalType": "string",
          "name": "",
          "type": "string"
        }
      ],
      "name": "_names",
      "outputs": [
        {
          "internalType": "bool",
          "name": "",
          "type": "bool"
        }
      ],
      "stateMutability": "view",
      "type": "function",
      "constant": true
    },
    {
      "inputs": [
        {
          "internalType": "address",
          "name": "owner",
          "type": "address"
        },
        {
          "internalType": "address",
          "name": "spender",
          "type": "address"
        }
      ],
      "name": "allowance",
      "outputs": [
        {
          "internalType": "uint256",
          "name": "",
          "type": "uint256"
        }
      ],
      "stateMutability": "view",
      "type": "function",
      "constant": true
    },
    {
      "inputs": [
        {
          "internalType": "address",
          "name": "spender",
          "type": "address"
        },
        {
          "internalType": "uint256",
          "name": "amount",
          "type": "uint256"
        }
      ],
      "name": "approve",
      "outputs": [
        {
          "internalType": "bool",
          "name": "",
          "type": "bool"
        }
      ],
      "stateMutability": "nonpayable",
      "type": "function"
    },
    {
      "inputs": [
        {
          "internalType": "address",
          "name": "account",
          "type": "address"
        }
      ],
      "name": "balanceOf",
      "outputs": [
        {
          "internalType": "uint256",
          "name": "",
          "type": "uint256"
        }
      ],
      "stateMutability": "view",
      "type": "function",
      "constant": true
    },
    {
      "inputs": [
        {
          "internalType": "address",
          "name": "",
          "type": "address"
        },
        {
          "internalType": "uint256",
          "name": "",
          "type": "uint256"
        }
      ],
      "name": "checkpoints",
      "outputs": [
        {
          "internalType": "uint256",
          "name": "",
          "type": "uint256"
        }
      ],
      "stateMutability": "view",
      "type": "function",
      "constant": true
    },
    {
      "inputs": [],
      "name": "decimals",
      "outputs": [
        {
          "internalType": "uint8",
          "name": "",
          "type": "uint8"
        }
      ],
      "stateMutability": "view",
      "type": "function",
      "constant": true
    },
    {
      "inputs": [
        {
          "internalType": "address",
          "name": "spender",
          "type": "address"
        },
        {
          "internalType": "uint256",
          "name": "subtractedValue",
          "type": "uint256"
        }
      ],
      "name": "decreaseAllowance",
      "outputs": [
        {
          "internalType": "bool",
          "name": "",
          "type": "bool"
        }
      ],
      "stateMutability": "nonpayable",
      "type": "function"
    },
    {
      "inputs": [
        {
          "internalType": "uint256",
          "name": "",
          "type": "uint256"
        }
      ],
      "name": "has_deposited",
      "outputs": [
        {
          "internalType": "bool",
          "name": "",
          "type": "bool"
        }
      ],
      "stateMutability": "view",
      "type": "function",
      "constant": true
    },
    {
      "inputs": [
        {
          "internalType": "address",
          "name": "spender",
          "type": "address"
        },
        {
          "internalType": "uint256",
          "name": "addedValue",
          "type": "uint256"
        }
      ],
      "name": "increaseAllowance",
      "outputs": [
        {
          "internalType": "bool",
          "name": "",
          "type": "bool"
        }
      ],
      "stateMutability": "nonpayable",
      "type": "function"
    },
    {
      "inputs": [],
      "name": "name",
      "outputs": [
        {
          "internalType": "string",
          "name": "",
          "type": "string"
        }
      ],
      "stateMutability": "view",
      "type": "function",
      "constant": true
    },
    {
      "inputs": [],
      "name": "owner",
      "outputs": [
        {
          "internalType": "address",
          "name": "",
          "type": "address"
        }
      ],
      "stateMutability": "view",
      "type": "function",
      "constant": true
    },
    {
      "inputs": [],
      "name": "renounceOwnership",
      "outputs": [],
      "stateMutability": "nonpayable",
      "type": "function"
    },
    {
      "inputs": [
        {
          "internalType": "uint256",
          "name": "",
          "type": "uint256"
        }
      ],
      "name": "staking_accounts",
      "outputs": [
        {
          "internalType": "address",
          "name": "",
          "type": "address"
        }
      ],
      "stateMutability": "view",
      "type": "function",
      "constant": true
    },
    {
      "inputs": [],
      "name": "symbol",
      "outputs": [
        {
          "internalType": "string",
          "name": "",
          "type": "string"
        }
      ],
      "stateMutability": "view",
      "type": "function",
      "constant": true
    },
    {
      "inputs": [],
      "name": "totalSupply",
      "outputs": [
        {
          "internalType": "uint256",
          "name": "",
          "type": "uint256"
        }
      ],
      "stateMutability": "view",
      "type": "function",
      "constant": true
    },
    {
      "inputs": [
        {
          "internalType": "address",
          "name": "to",
          "type": "address"
        },
        {
          "internalType": "uint256",
          "name": "amount",
          "type": "uint256"
        }
      ],
      "name": "transfer",
      "outputs": [
        {
          "internalType": "bool",
          "name": "",
          "type": "bool"
        }
      ],
      "stateMutability": "nonpayable",
      "type": "function"
    },
    {
      "inputs": [
        {
          "internalType": "address",
          "name": "from",
          "type": "address"
        },
        {
          "internalType": "address",
          "name": "to",
          "type": "address"
        },
        {
          "internalType": "uint256",
          "name": "amount",
          "type": "uint256"
        }
      ],
      "name": "transferFrom",
      "outputs": [
        {
          "internalType": "bool",
          "name": "",
          "type": "bool"
        }
      ],
      "stateMutability": "nonpayable",
      "type": "function"
    },
    {
      "inputs": [
        {
          "internalType": "address",
          "name": "newOwner",
          "type": "address"
        }
      ],
      "name": "transferOwnership",
      "outputs": [],
      "stateMutability": "nonpayable",
      "type": "function"
    },
    {
      "inputs": [
        {
          "internalType": "uint256",
          "name": "tokenId",
          "type": "uint256"
        }
      ],
      "name": "aprovar",
      "outputs": [],
      "stateMutability": "nonpayable",
      "type": "function"
    },
    {
      "inputs": [
        {
          "internalType": "uint256",
          "name": "tokenId",
          "type": "uint256"
        }
      ],
      "name": "deposit",
      "outputs": [],
      "stateMutability": "nonpayable",
      "type": "function"
    },
    {
      "inputs": [
        {
          "internalType": "uint256",
          "name": "tokenId",
          "type": "uint256"
        }
      ],
      "name": "withdraw",
      "outputs": [],
      "stateMutability": "nonpayable",
      "type": "function"
    },
    {
      "inputs": [
        {
          "internalType": "address",
          "name": "beneficiary",
          "type": "address"
        },
        {
          "internalType": "uint256",
          "name": "tokenId",
          "type": "uint256"
        }
      ],
      "name": "collect",
      "outputs": [],
      "stateMutability": "nonpayable",
      "type": "function"
    },
    {
      "inputs": [
        {
          "internalType": "uint256",
          "name": "tokenId",
          "type": "uint256"
        }
      ],
      "name": "hashimaOnStaking",
      "outputs": [
        {
          "internalType": "bool",
          "name": "",
          "type": "bool"
        }
      ],
      "stateMutability": "view",
      "type": "function",
      "constant": true
    },
    {
      "inputs": [
        {
          "internalType": "address",
          "name": "beneficiary",
          "type": "address"
        },
        {
          "internalType": "uint256",
          "name": "tokenId",
          "type": "uint256"
        }
      ],
      "name": "calculateReward",
      "outputs": [
        {
          "internalType": "uint256",
          "name": "",
          "type": "uint256"
        }
      ],
      "stateMutability": "view",
      "type": "function",
      "constant": true
    }
  ],
  "bytecode": "0x608060405260646009553480156200001657600080fd5b50604051620030f7380380620030f783398181016040528101906200003c919062000483565b6040518060400160405280600981526020017f456475636174696f6e00000000000000000000000000000000000000000000008152506040518060400160405280600481526020017f45444449000000000000000000000000000000000000000000000000000000008152508160039080519060200190620000c0929190620003bc565b508060049080519060200190620000d9929190620003bc565b505050620000fc620000f06200016b60201b60201c565b6200017360201b60201c565b620001233374029c30f1029939b146664242d97d9f6490000000006200023960201b60201c565b80600c60006101000a81548173ffffffffffffffffffffffffffffffffffffffff021916908373ffffffffffffffffffffffffffffffffffffffff16021790555050620006bd565b600033905090565b6000600560009054906101000a900473ffffffffffffffffffffffffffffffffffffffff16905081600560006101000a81548173ffffffffffffffffffffffffffffffffffffffff021916908373ffffffffffffffffffffffffffffffffffffffff1602179055508173ffffffffffffffffffffffffffffffffffffffff168173ffffffffffffffffffffffffffffffffffffffff167f8be0079c531659141344cd1fd0a4f28419497f9722a3daafe3b4186f6b6457e060405160405180910390a35050565b600073ffffffffffffffffffffffffffffffffffffffff168273ffffffffffffffffffffffffffffffffffffffff161415620002ac576040517f08c379a0000000000000000000000000000000000000000000000000000000008152600401620002a390620004e7565b60405180910390fd5b620002c060008383620003b260201b60201c565b8060026000828254620002d4919062000537565b92505081905550806000808473ffffffffffffffffffffffffffffffffffffffff1673ffffffffffffffffffffffffffffffffffffffff16815260200190815260200160002060008282546200032b919062000537565b925050819055508173ffffffffffffffffffffffffffffffffffffffff16600073ffffffffffffffffffffffffffffffffffffffff167fddf252ad1be2c89b69c2b068fc378daa952ba7f163c4a11628f55a4df523b3ef8360405162000392919062000509565b60405180910390a3620003ae60008383620003b760201b60201c565b5050565b505050565b505050565b828054620003ca90620005e6565b90600052602060002090601f016020900481019282620003ee57600085556200043a565b82601f106200040957805160ff19168380011785556200043a565b828001600101855582156200043a579182015b82811115620004395782518255916020019190600101906200041c565b5b5090506200044991906200044d565b5090565b5b80821115620004685760008160009055506001016200044e565b5090565b6000815190506200047d81620006a3565b92915050565b6000602082840312156200049657600080fd5b6000620004a6848285016200046c565b91505092915050565b6000620004be601f8362000526565b9150620004cb826200067a565b602082019050919050565b620004e181620005dc565b82525050565b600060208201905081810360008301526200050281620004af565b9050919050565b6000602082019050620005206000830184620004d6565b92915050565b600082825260208201905092915050565b60006200054482620005dc565b91506200055183620005dc565b9250827fffffffffffffffffffffffffffffffffffffffffffffffffffffffffffffffff038211156200058957620005886200061c565b5b828201905092915050565b6000620005a182620005bc565b9050919050565b6000620005b58262000594565b9050919050565b600073ffffffffffffffffffffffffffffffffffffffff82169050919050565b6000819050919050565b60006002820490506001821680620005ff57607f821691505b602082108114156200061657620006156200064b565b5b50919050565b7f4e487b7100000000000000000000000000000000000000000000000000000000600052601160045260246000fd5b7f4e487b7100000000000000000000000000000000000000000000000000000000600052602260045260246000fd5b7f45524332303a206d696e7420746f20746865207a65726f206164647265737300600082015250565b620006ae81620005a8565b8114620006ba57600080fd5b50565b612a2a80620006cd6000396000f3fe608060405234801561001057600080fd5b50600436106101735760003560e01c806370a08231116100de578063a9059cbb11610097578063d1760fac11610071578063d1760fac14610486578063dd62ed3e146104b6578063e68039c6146104e6578063f2fde38b1461051657610173565b8063a9059cbb1461040a578063af9d16321461043a578063b6b55f251461046a57610173565b806370a0823114610346578063715018a6146103765780638da5cb5b1461038057806395d89b411461039e578063975532dc146103bc578063a457c2d7146103da57610173565b80632e1a7d4d116101305780632e1a7d4d14610274578063313ce5671461029057806338608235146102ae57806339509351146102de57806357ddb1ed1461030e5780636b8357ac1461032a57610173565b806306fdde0314610178578063095ea7b3146101965780630cdfebfa146101c657806318160ddd146101f65780631852e8d91461021457806323b872dd14610244575b600080fd5b610180610532565b60405161018d9190612101565b60405180910390f35b6101b060048036038101906101ab9190611d02565b6105c4565b6040516101bd91906120e6565b60405180910390f35b6101e060048036038101906101db9190611d02565b6105e7565b6040516101ed9190612303565b60405180910390f35b6101fe61060c565b60405161020b9190612303565b60405180910390f35b61022e60048036038101906102299190611d02565b610616565b60405161023b9190612303565b60405180910390f35b61025e60048036038101906102599190611cb3565b6106be565b60405161026b91906120e6565b60405180910390f35b61028e60048036038101906102899190611dc0565b6106ed565b005b6102986108b8565b6040516102a5919061231e565b60405180910390f35b6102c860048036038101906102c39190611dc0565b6108c1565b6040516102d591906120e6565b60405180910390f35b6102f860048036038101906102f39190611d02565b6108eb565b60405161030591906120e6565b60405180910390f35b61032860048036038101906103239190611dc0565b610995565b005b610344600480360381019061033f9190611d02565b610a27565b005b610360600480360381019061035b9190611c25565b610a99565b60405161036d9190612303565b60405180910390f35b61037e610ae1565b005b610388610b69565b604051610395919061206b565b60405180910390f35b6103a6610b93565b6040516103b39190612101565b60405180910390f35b6103c4610c25565b6040516103d19190612303565b60405180910390f35b6103f460048036038101906103ef9190611d02565b610c2b565b60405161040191906120e6565b60405180910390f35b610424600480360381019061041f9190611d02565b610d15565b60405161043191906120e6565b60405180910390f35b610454600480360381019061044f9190611dc0565b610d38565b60405161046191906120e6565b60405180910390f35b610484600480360381019061047f9190611dc0565b610d58565b005b6104a0600480360381019061049b9190611d3e565b61112b565b6040516104ad91906120e6565b60405180910390f35b6104d060048036038101906104cb9190611c77565b611161565b6040516104dd9190612303565b60405180910390f35b61050060048036038101906104fb9190611dc0565b6111e8565b60405161050d919061206b565b60405180910390f35b610530600480360381019061052b9190611c25565b61121b565b005b60606003805461054190612526565b80601f016020809104026020016040519081016040528092919081815260200182805461056d90612526565b80156105ba5780601f1061058f576101008083540402835291602001916105ba565b820191906000526020600020905b81548152906001019060200180831161059d57829003601f168201915b5050505050905090565b6000806105cf611313565b90506105dc81858561131b565b600191505092915050565b6006602052816000526040600020602052806000526040600020600091509150505481565b6000600254905090565b60006007600083815260200190815260200160002060009054906101000a900460ff1661064657600090506106b8565b6000600660008573ffffffffffffffffffffffffffffffffffffffff1673ffffffffffffffffffffffffffffffffffffffff168152602001908152602001600020600084815260200190815260200160002054905080436106a7919061245b565b6009546106b49190612401565b9150505b92915050565b6000806106c9611313565b90506106d68582856114e6565b6106e1858585611572565b60019150509392505050565b6007600082815260200190815260200160002060009054906101000a900460ff1661074d576040517f08c379a0000000000000000000000000000000000000000000000000000000008152600401610744906121e3565b60405180910390fd5b3373ffffffffffffffffffffffffffffffffffffffff166008600083815260200190815260200160002060009054906101000a900473ffffffffffffffffffffffffffffffffffffffff1673ffffffffffffffffffffffffffffffffffffffff16146107ee576040517f08c379a00000000000000000000000000000000000000000000000000000000081526004016107e590612163565b60405180910390fd5b6107f83382610a27565b600c60009054906101000a900473ffffffffffffffffffffffffffffffffffffffff1673ffffffffffffffffffffffffffffffffffffffff166323b872dd3033846040518463ffffffff1660e01b815260040161085793929190612086565b600060405180830381600087803b15801561087157600080fd5b505af1158015610885573d6000803e3d6000fd5b5050505060006007600083815260200190815260200160002060006101000a81548160ff02191690831515021790555050565b60006012905090565b60006007600083815260200190815260200160002060009054906101000a900460ff169050919050565b6000806108f6611313565b905061098a818585600160008673ffffffffffffffffffffffffffffffffffffffff1673ffffffffffffffffffffffffffffffffffffffff16815260200190815260200160002060008973ffffffffffffffffffffffffffffffffffffffff1673ffffffffffffffffffffffffffffffffffffffff1681526020019081526020016000205461098591906123ab565b61131b565b600191505092915050565b600c60009054906101000a900473ffffffffffffffffffffffffffffffffffffffff1673ffffffffffffffffffffffffffffffffffffffff1663095ea7b330836040518363ffffffff1660e01b81526004016109f29291906120bd565b600060405180830381600087803b158015610a0c57600080fd5b505af1158015610a20573d6000803e3d6000fd5b5050505050565b6000610a338383610616565b905043600660008573ffffffffffffffffffffffffffffffffffffffff1673ffffffffffffffffffffffffffffffffffffffff168152602001908152602001600020600084815260200190815260200160002081905550610a9433826117f3565b505050565b60008060008373ffffffffffffffffffffffffffffffffffffffff1673ffffffffffffffffffffffffffffffffffffffff168152602001908152602001600020549050919050565b610ae9611313565b73ffffffffffffffffffffffffffffffffffffffff16610b07610b69565b73ffffffffffffffffffffffffffffffffffffffff1614610b5d576040517f08c379a0000000000000000000000000000000000000000000000000000000008152600401610b5490612263565b60405180910390fd5b610b676000611953565b565b6000600560009054906101000a900473ffffffffffffffffffffffffffffffffffffffff16905090565b606060048054610ba290612526565b80601f0160208091040260200160405190810160405280929190818152602001828054610bce90612526565b8015610c1b5780601f10610bf057610100808354040283529160200191610c1b565b820191906000526020600020905b815481529060010190602001808311610bfe57829003601f168201915b5050505050905090565b60095481565b600080610c36611313565b90506000600160008373ffffffffffffffffffffffffffffffffffffffff1673ffffffffffffffffffffffffffffffffffffffff16815260200190815260200160002060008673ffffffffffffffffffffffffffffffffffffffff1673ffffffffffffffffffffffffffffffffffffffff16815260200190815260200160002054905083811015610cfc576040517f08c379a0000000000000000000000000000000000000000000000000000000008152600401610cf3906122c3565b60405180910390fd5b610d09828686840361131b565b60019250505092915050565b600080610d20611313565b9050610d2d818585611572565b600191505092915050565b60076020528060005260406000206000915054906101000a900460ff1681565b600c60009054906101000a900473ffffffffffffffffffffffffffffffffffffffff1673ffffffffffffffffffffffffffffffffffffffff16636352211e826040518263ffffffff1660e01b8152600401610db39190612303565b60206040518083038186803b158015610dcb57600080fd5b505afa158015610ddf573d6000803e3d6000fd5b505050506040513d601f19601f82011682018060405250810190610e039190611c4e565b73ffffffffffffffffffffffffffffffffffffffff163373ffffffffffffffffffffffffffffffffffffffff1614610e70576040517f08c379a0000000000000000000000000000000000000000000000000000000008152600401610e6790612203565b60405180910390fd5b6007600082815260200190815260200160002060009054906101000a900460ff1615610ed1576040517f08c379a0000000000000000000000000000000000000000000000000000000008152600401610ec890612243565b60405180910390fd5b600c60009054906101000a900473ffffffffffffffffffffffffffffffffffffffff1673ffffffffffffffffffffffffffffffffffffffff16639507d39a826040518263ffffffff1660e01b8152600401610f2c9190612303565b60006040518083038186803b158015610f4457600080fd5b505afa158015610f58573d6000803e3d6000fd5b505050506040513d6000823e3d601f19601f82011682018060405250810190610f819190611d7f565b60800151610fc4576040517f08c379a0000000000000000000000000000000000000000000000000000000008152600401610fbb90612143565b60405180910390fd5b43600660003373ffffffffffffffffffffffffffffffffffffffff1673ffffffffffffffffffffffffffffffffffffffff168152602001908152602001600020600083815260200190815260200160002081905550336008600083815260200190815260200160002060006101000a81548173ffffffffffffffffffffffffffffffffffffffff021916908373ffffffffffffffffffffffffffffffffffffffff160217905550600c60009054906101000a900473ffffffffffffffffffffffffffffffffffffffff1673ffffffffffffffffffffffffffffffffffffffff166323b872dd3330846040518463ffffffff1660e01b81526004016110ca93929190612086565b600060405180830381600087803b1580156110e457600080fd5b505af11580156110f8573d6000803e3d6000fd5b5050505060016007600083815260200190815260200160002060006101000a81548160ff02191690831515021790555050565b600b818051602081018201805184825260208301602085012081835280955050505050506000915054906101000a900460ff1681565b6000600160008473ffffffffffffffffffffffffffffffffffffffff1673ffffffffffffffffffffffffffffffffffffffff16815260200190815260200160002060008373ffffffffffffffffffffffffffffffffffffffff1673ffffffffffffffffffffffffffffffffffffffff16815260200190815260200160002054905092915050565b60086020528060005260406000206000915054906101000a900473ffffffffffffffffffffffffffffffffffffffff1681565b611223611313565b73ffffffffffffffffffffffffffffffffffffffff16611241610b69565b73ffffffffffffffffffffffffffffffffffffffff1614611297576040517f08c379a000000000000000000000000000000000000000000000000000000000815260040161128e90612263565b60405180910390fd5b600073ffffffffffffffffffffffffffffffffffffffff168173ffffffffffffffffffffffffffffffffffffffff161415611307576040517f08c379a00000000000000000000000000000000000000000000000000000000081526004016112fe90612183565b60405180910390fd5b61131081611953565b50565b600033905090565b600073ffffffffffffffffffffffffffffffffffffffff168373ffffffffffffffffffffffffffffffffffffffff16141561138b576040517f08c379a0000000000000000000000000000000000000000000000000000000008152600401611382906122a3565b60405180910390fd5b600073ffffffffffffffffffffffffffffffffffffffff168273ffffffffffffffffffffffffffffffffffffffff1614156113fb576040517f08c379a00000000000000000000000000000000000000000000000000000000081526004016113f2906121a3565b60405180910390fd5b80600160008573ffffffffffffffffffffffffffffffffffffffff1673ffffffffffffffffffffffffffffffffffffffff16815260200190815260200160002060008473ffffffffffffffffffffffffffffffffffffffff1673ffffffffffffffffffffffffffffffffffffffff168152602001908152602001600020819055508173ffffffffffffffffffffffffffffffffffffffff168373ffffffffffffffffffffffffffffffffffffffff167f8c5be1e5ebec7d5bd14f71427d1e84f3dd0314c0f7b2291e5b200ac8c7c3b925836040516114d99190612303565b60405180910390a3505050565b60006114f28484611161565b90507fffffffffffffffffffffffffffffffffffffffffffffffffffffffffffffffff811461156c578181101561155e576040517f08c379a0000000000000000000000000000000000000000000000000000000008152600401611555906121c3565b60405180910390fd5b61156b848484840361131b565b5b50505050565b600073ffffffffffffffffffffffffffffffffffffffff168373ffffffffffffffffffffffffffffffffffffffff1614156115e2576040517f08c379a00000000000000000000000000000000000000000000000000000000081526004016115d990612283565b60405180910390fd5b600073ffffffffffffffffffffffffffffffffffffffff168273ffffffffffffffffffffffffffffffffffffffff161415611652576040517f08c379a000000000000000000000000000000000000000000000000000000000815260040161164990612123565b60405180910390fd5b61165d838383611a19565b60008060008573ffffffffffffffffffffffffffffffffffffffff1673ffffffffffffffffffffffffffffffffffffffff168152602001908152602001600020549050818110156116e3576040517f08c379a00000000000000000000000000000000000000000000000000000000081526004016116da90612223565b60405180910390fd5b8181036000808673ffffffffffffffffffffffffffffffffffffffff1673ffffffffffffffffffffffffffffffffffffffff16815260200190815260200160002081905550816000808573ffffffffffffffffffffffffffffffffffffffff1673ffffffffffffffffffffffffffffffffffffffff168152602001908152602001600020600082825461177691906123ab565b925050819055508273ffffffffffffffffffffffffffffffffffffffff168473ffffffffffffffffffffffffffffffffffffffff167fddf252ad1be2c89b69c2b068fc378daa952ba7f163c4a11628f55a4df523b3ef846040516117da9190612303565b60405180910390a36117ed848484611a1e565b50505050565b600073ffffffffffffffffffffffffffffffffffffffff168273ffffffffffffffffffffffffffffffffffffffff161415611863576040517f08c379a000000000000000000000000000000000000000000000000000000000815260040161185a906122e3565b60405180910390fd5b61186f60008383611a19565b806002600082825461188191906123ab565b92505081905550806000808473ffffffffffffffffffffffffffffffffffffffff1673ffffffffffffffffffffffffffffffffffffffff16815260200190815260200160002060008282546118d691906123ab565b925050819055508173ffffffffffffffffffffffffffffffffffffffff16600073ffffffffffffffffffffffffffffffffffffffff167fddf252ad1be2c89b69c2b068fc378daa952ba7f163c4a11628f55a4df523b3ef8360405161193b9190612303565b60405180910390a361194f60008383611a1e565b5050565b6000600560009054906101000a900473ffffffffffffffffffffffffffffffffffffffff16905081600560006101000a81548173ffffffffffffffffffffffffffffffffffffffff021916908373ffffffffffffffffffffffffffffffffffffffff1602179055508173ffffffffffffffffffffffffffffffffffffffff168173ffffffffffffffffffffffffffffffffffffffff167f8be0079c531659141344cd1fd0a4f28419497f9722a3daafe3b4186f6b6457e060405160405180910390a35050565b505050565b505050565b6000611a36611a318461235e565b612339565b905082815260208101848484011115611a4e57600080fd5b611a598482856124e4565b509392505050565b6000611a74611a6f8461235e565b612339565b905082815260208101848484011115611a8c57600080fd5b611a978482856124f3565b509392505050565b600081359050611aae81612998565b92915050565b600081519050611ac381612998565b92915050565b600081519050611ad8816129af565b92915050565b600082601f830112611aef57600080fd5b8135611aff848260208601611a23565b91505092915050565b600082601f830112611b1957600080fd5b8151611b29848260208601611a61565b91505092915050565b600060c08284031215611b4457600080fd5b611b4e60c0612339565b90506000611b5e84828501611bfb565b600083015250602082015167ffffffffffffffff811115611b7e57600080fd5b611b8a84828501611b08565b6020830152506040611b9e84828501611c10565b6040830152506060611bb284828501611ab4565b6060830152506080611bc684828501611ac9565b60808301525060a0611bda84828501611bfb565b60a08301525092915050565b600081359050611bf5816129c6565b92915050565b600081519050611c0a816129c6565b92915050565b600081519050611c1f816129dd565b92915050565b600060208284031215611c3757600080fd5b6000611c4584828501611a9f565b91505092915050565b600060208284031215611c6057600080fd5b6000611c6e84828501611ab4565b91505092915050565b60008060408385031215611c8a57600080fd5b6000611c9885828601611a9f565b9250506020611ca985828601611a9f565b9150509250929050565b600080600060608486031215611cc857600080fd5b6000611cd686828701611a9f565b9350506020611ce786828701611a9f565b9250506040611cf886828701611be6565b9150509250925092565b60008060408385031215611d1557600080fd5b6000611d2385828601611a9f565b9250506020611d3485828601611be6565b9150509250929050565b600060208284031215611d5057600080fd5b600082013567ffffffffffffffff811115611d6a57600080fd5b611d7684828501611ade565b91505092915050565b600060208284031215611d9157600080fd5b600082015167ffffffffffffffff811115611dab57600080fd5b611db784828501611b32565b91505092915050565b600060208284031215611dd257600080fd5b6000611de084828501611be6565b91505092915050565b611df28161248f565b82525050565b611e01816124a1565b82525050565b6000611e128261238f565b611e1c818561239a565b9350611e2c8185602086016124f3565b611e3581612616565b840191505092915050565b6000611e4d60238361239a565b9150611e5882612627565b604082019050919050565b6000611e70600e8361239a565b9150611e7b82612676565b602082019050919050565b6000611e93600f8361239a565b9150611e9e8261269f565b602082019050919050565b6000611eb660268361239a565b9150611ec1826126c8565b604082019050919050565b6000611ed960228361239a565b9150611ee482612717565b604082019050919050565b6000611efc601d8361239a565b9150611f0782612766565b602082019050919050565b6000611f1f60158361239a565b9150611f2a8261278f565b602082019050919050565b6000611f4260148361239a565b9150611f4d826127b8565b602082019050919050565b6000611f6560268361239a565b9150611f70826127e1565b604082019050919050565b6000611f8860188361239a565b9150611f9382612830565b602082019050919050565b6000611fab60208361239a565b9150611fb682612859565b602082019050919050565b6000611fce60258361239a565b9150611fd982612882565b604082019050919050565b6000611ff160248361239a565b9150611ffc826128d1565b604082019050919050565b600061201460258361239a565b915061201f82612920565b604082019050919050565b6000612037601f8361239a565b91506120428261296f565b602082019050919050565b612056816124cd565b82525050565b612065816124d7565b82525050565b60006020820190506120806000830184611de9565b92915050565b600060608201905061209b6000830186611de9565b6120a86020830185611de9565b6120b5604083018461204d565b949350505050565b60006040820190506120d26000830185611de9565b6120df602083018461204d565b9392505050565b60006020820190506120fb6000830184611df8565b92915050565b6000602082019050818103600083015261211b8184611e07565b905092915050565b6000602082019050818103600083015261213c81611e40565b9050919050565b6000602082019050818103600083015261215c81611e63565b9050919050565b6000602082019050818103600083015261217c81611e86565b9050919050565b6000602082019050818103600083015261219c81611ea9565b9050919050565b600060208201905081810360008301526121bc81611ecc565b9050919050565b600060208201905081810360008301526121dc81611eef565b9050919050565b600060208201905081810360008301526121fc81611f12565b9050919050565b6000602082019050818103600083015261221c81611f35565b9050919050565b6000602082019050818103600083015261223c81611f58565b9050919050565b6000602082019050818103600083015261225c81611f7b565b9050919050565b6000602082019050818103600083015261227c81611f9e565b9050919050565b6000602082019050818103600083015261229c81611fc1565b9050919050565b600060208201905081810360008301526122bc81611fe4565b9050919050565b600060208201905081810360008301526122dc81612007565b9050919050565b600060208201905081810360008301526122fc8161202a565b9050919050565b6000602082019050612318600083018461204d565b92915050565b6000602082019050612333600083018461205c565b92915050565b6000612343612354565b905061234f8282612558565b919050565b6000604051905090565b600067ffffffffffffffff821115612379576123786125e7565b5b61238282612616565b9050602081019050919050565b600081519050919050565b600082825260208201905092915050565b60006123b6826124cd565b91506123c1836124cd565b9250827fffffffffffffffffffffffffffffffffffffffffffffffffffffffffffffffff038211156123f6576123f5612589565b5b828201905092915050565b600061240c826124cd565b9150612417836124cd565b9250817fffffffffffffffffffffffffffffffffffffffffffffffffffffffffffffffff04831182151516156124505761244f612589565b5b828202905092915050565b6000612466826124cd565b9150612471836124cd565b92508282101561248457612483612589565b5b828203905092915050565b600061249a826124ad565b9050919050565b60008115159050919050565b600073ffffffffffffffffffffffffffffffffffffffff82169050919050565b6000819050919050565b600060ff82169050919050565b82818337600083830152505050565b60005b838110156125115780820151818401526020810190506124f6565b83811115612520576000848401525b50505050565b6000600282049050600182168061253e57607f821691505b60208210811415612552576125516125b8565b5b50919050565b61256182612616565b810181811067ffffffffffffffff821117156125805761257f6125e7565b5b80604052505050565b7f4e487b7100000000000000000000000000000000000000000000000000000000600052601160045260246000fd5b7f4e487b7100000000000000000000000000000000000000000000000000000000600052602260045260246000fd5b7f4e487b7100000000000000000000000000000000000000000000000000000000600052604160045260246000fd5b6000601f19601f8301169050919050565b7f45524332303a207472616e7366657220746f20746865207a65726f206164647260008201527f6573730000000000000000000000000000000000000000000000000000000000602082015250565b7f48617320746f206265207369676e000000000000000000000000000000000000600082015250565b7f4f6e6c7920746865205374616b65720000000000000000000000000000000000600082015250565b7f4f776e61626c653a206e6577206f776e657220697320746865207a65726f206160008201527f6464726573730000000000000000000000000000000000000000000000000000602082015250565b7f45524332303a20617070726f766520746f20746865207a65726f20616464726560008201527f7373000000000000000000000000000000000000000000000000000000000000602082015250565b7f45524332303a20696e73756666696369656e7420616c6c6f77616e6365000000600082015250565b7f4e6f20746f6b656e7320746f2077697468646172770000000000000000000000600082015250565b7f53656e646572206d757374206265206f776e6572000000000000000000000000600082015250565b7f45524332303a207472616e7366657220616d6f756e742065786365656473206260008201527f616c616e63650000000000000000000000000000000000000000000000000000602082015250565b7f53656e64657220616c7265616479206465706f73697465640000000000000000600082015250565b7f4f776e61626c653a2063616c6c6572206973206e6f7420746865206f776e6572600082015250565b7f45524332303a207472616e736665722066726f6d20746865207a65726f20616460008201527f6472657373000000000000000000000000000000000000000000000000000000602082015250565b7f45524332303a20617070726f76652066726f6d20746865207a65726f2061646460008201527f7265737300000000000000000000000000000000000000000000000000000000602082015250565b7f45524332303a2064656372656173656420616c6c6f77616e63652062656c6f7760008201527f207a65726f000000000000000000000000000000000000000000000000000000602082015250565b7f45524332303a206d696e7420746f20746865207a65726f206164647265737300600082015250565b6129a18161248f565b81146129ac57600080fd5b50565b6129b8816124a1565b81146129c357600080fd5b50565b6129cf816124cd565b81146129da57600080fd5b50565b6129e6816124d7565b81146129f157600080fd5b5056fea264697066735822122074542fd9e45280a625d19dff6b80564bc4ad71dc753b484e503e547c0c730e6964736f6c63430008030033",
  "immutableReferences": {},
  "source": "// SPDX-License-Identifier: MIT\npragma solidity ^0.8.0;\n\nimport \"@openzeppelin/contracts/token/ERC20/ERC20.sol\";\nimport \"@openzeppelin/contracts/utils/Counters.sol\";\nimport \"@openzeppelin/contracts/access/Ownable.sol\";\nimport \"./Deccert.sol\";\n\n\ncontract StakingContract is ERC20,Ownable{\n\n    mapping(address => mapping(uint256=>uint256)) public checkpoints;\n    mapping(uint256 => bool) public has_deposited;\n    mapping(uint256 => address) public staking_accounts;\n\n\n    uint public REWARD_PER_BLOCK = 100;\n \n    mapping(address=>uint256) private tolerance;\n    //check the string use by the user is not repeat\n    mapping(string=>bool)public _names;\n\n    Deccert private contratoBase;\n    constructor(Deccert deccert_contract) ERC20(\"Education\", \"EDDI\") {\n      _mint(msg.sender, 500**18);\n      contratoBase=deccert_contract;\n    }\n    \n    function aprovar(uint256 tokenId)external{\n        contratoBase.approve(address(this), tokenId);\n    }\n\n    function deposit(uint256 tokenId) external{\n        require (msg.sender == contratoBase.ownerOf(tokenId), 'Sender must be owner');\n        require (!has_deposited[tokenId], 'Sender already deposited');\n        require(contratoBase.get(tokenId).signed,\"Has to be sign\");\n        //La altura del bloque de partida\n        checkpoints[msg.sender][tokenId] = block.number;\n        staking_accounts[tokenId]=msg.sender;\n        \n        contratoBase.transferFrom(msg.sender, address(this), tokenId);\n      \n        has_deposited[tokenId]=true;\n   }\n\n    function withdraw(uint256 tokenId) external{\n        require(has_deposited[tokenId], 'No tokens to withdarw');\n        require(staking_accounts[tokenId]==msg.sender,'Only the Staker');\n        collect(msg.sender,tokenId);\n        contratoBase.transferFrom(address(this), msg.sender, tokenId);\n        \n        has_deposited[tokenId]=false;\n    }\n\n    function collect(address beneficiary,uint256 tokenId) public{\n        uint256 reward = calculateReward(beneficiary,tokenId);\n        checkpoints[beneficiary][tokenId] = block.number;      \n        _mint(msg.sender, reward);\n    }\n\n    function hashimaOnStaking(uint256 tokenId)public view returns(bool){\n        return has_deposited[tokenId];\n    }\n\n    function calculateReward(address beneficiary,uint256 tokenId) public view returns(uint256){\n        if(!has_deposited[tokenId])return 0;\n        \n        uint256 checkpoint = checkpoints[beneficiary][tokenId];\n        return REWARD_PER_BLOCK*(block.number-checkpoint);\n    }\n\n\n\n}\n",
  "sourcePath": "/Users/aarontolentino/Documents/AcademiaCrypto/Deccert/contracts/StakingContract.sol",
  "compiler": {
    "name": "solc",
    "version": "0.8.3+commit.8d00100c.Emscripten.clang"
  },
  "schemaVersion": "3.4.1",
  "updatedAt": "2022-05-20T22:22:43.495Z",
  "networkType": "ethereum",
  "devdoc": {
    "kind": "dev",
    "methods": {
      "allowance(address,address)": {
        "details": "See {IERC20-allowance}."
      },
      "approve(address,uint256)": {
        "details": "See {IERC20-approve}. NOTE: If `amount` is the maximum `uint256`, the allowance is not updated on `transferFrom`. This is semantically equivalent to an infinite approval. Requirements: - `spender` cannot be the zero address."
      },
      "balanceOf(address)": {
        "details": "See {IERC20-balanceOf}."
      },
      "decimals()": {
        "details": "Returns the number of decimals used to get its user representation. For example, if `decimals` equals `2`, a balance of `505` tokens should be displayed to a user as `5.05` (`505 / 10 ** 2`). Tokens usually opt for a value of 18, imitating the relationship between Ether and Wei. This is the value {ERC20} uses, unless this function is overridden; NOTE: This information is only used for _display_ purposes: it in no way affects any of the arithmetic of the contract, including {IERC20-balanceOf} and {IERC20-transfer}."
      },
      "decreaseAllowance(address,uint256)": {
        "details": "Atomically decreases the allowance granted to `spender` by the caller. This is an alternative to {approve} that can be used as a mitigation for problems described in {IERC20-approve}. Emits an {Approval} event indicating the updated allowance. Requirements: - `spender` cannot be the zero address. - `spender` must have allowance for the caller of at least `subtractedValue`."
      },
      "increaseAllowance(address,uint256)": {
        "details": "Atomically increases the allowance granted to `spender` by the caller. This is an alternative to {approve} that can be used as a mitigation for problems described in {IERC20-approve}. Emits an {Approval} event indicating the updated allowance. Requirements: - `spender` cannot be the zero address."
      },
      "name()": {
        "details": "Returns the name of the token."
      },
      "owner()": {
        "details": "Returns the address of the current owner."
      },
      "renounceOwnership()": {
        "details": "Leaves the contract without owner. It will not be possible to call `onlyOwner` functions anymore. Can only be called by the current owner. NOTE: Renouncing ownership will leave the contract without an owner, thereby removing any functionality that is only available to the owner."
      },
      "symbol()": {
        "details": "Returns the symbol of the token, usually a shorter version of the name."
      },
      "totalSupply()": {
        "details": "See {IERC20-totalSupply}."
      },
      "transfer(address,uint256)": {
        "details": "See {IERC20-transfer}. Requirements: - `to` cannot be the zero address. - the caller must have a balance of at least `amount`."
      },
      "transferFrom(address,address,uint256)": {
        "details": "See {IERC20-transferFrom}. Emits an {Approval} event indicating the updated allowance. This is not required by the EIP. See the note at the beginning of {ERC20}. NOTE: Does not update the allowance if the current allowance is the maximum `uint256`. Requirements: - `from` and `to` cannot be the zero address. - `from` must have a balance of at least `amount`. - the caller must have allowance for ``from``'s tokens of at least `amount`."
      },
      "transferOwnership(address)": {
        "details": "Transfers ownership of the contract to a new account (`newOwner`). Can only be called by the current owner."
      }
    },
    "version": 1
  },
  "userdoc": {
    "kind": "user",
    "methods": {},
    "version": 1
  }
}