{
  "contractName": "Voting",
  "abi": [
    {
      "inputs": [
        {
          "internalType": "contract Eddi",
          "name": "contrato_eddi",
          "type": "address"
        }
      ],
      "stateMutability": "nonpayable",
      "type": "constructor"
    },
    {
      "anonymous": false,
      "inputs": [
        {
          "indexed": true,
          "internalType": "address",
          "name": "previousOwner",
          "type": "address"
        },
        {
          "indexed": true,
          "internalType": "address",
          "name": "newOwner",
          "type": "address"
        }
      ],
      "name": "OwnershipTransferred",
      "type": "event"
    },
    {
      "inputs": [],
      "name": "owner",
      "outputs": [
        {
          "internalType": "address",
          "name": "",
          "type": "address"
        }
      ],
      "stateMutability": "view",
      "type": "function"
    },
    {
      "inputs": [],
      "name": "renounceOwnership",
      "outputs": [],
      "stateMutability": "nonpayable",
      "type": "function"
    },
    {
      "inputs": [
        {
          "internalType": "address",
          "name": "newOwner",
          "type": "address"
        }
      ],
      "name": "transferOwnership",
      "outputs": [],
      "stateMutability": "nonpayable",
      "type": "function"
    },
    {
      "inputs": [
        {
          "internalType": "string",
          "name": "_propuesta",
          "type": "string"
        },
        {
          "internalType": "uint256",
          "name": "index",
          "type": "uint256"
        }
      ],
      "name": "addPropousal",
      "outputs": [],
      "stateMutability": "nonpayable",
      "type": "function"
    },
    {
      "inputs": [
        {
          "internalType": "uint256",
          "name": "_index",
          "type": "uint256"
        }
      ],
      "name": "vote",
      "outputs": [],
      "stateMutability": "nonpayable",
      "type": "function"
    }
  ],
  "bytecode": "0x608060405234801561001057600080fd5b5060405162000e1a38038062000e1a83398181016040528101906100349190610178565b61005061004561009760201b60201c565b61009f60201b60201c565b80600460006101000a81548173ffffffffffffffffffffffffffffffffffffffff021916908373ffffffffffffffffffffffffffffffffffffffff160217905550506101fc565b600033905090565b60008060009054906101000a900473ffffffffffffffffffffffffffffffffffffffff169050816000806101000a81548173ffffffffffffffffffffffffffffffffffffffff021916908373ffffffffffffffffffffffffffffffffffffffff1602179055508173ffffffffffffffffffffffffffffffffffffffff168173ffffffffffffffffffffffffffffffffffffffff167f8be0079c531659141344cd1fd0a4f28419497f9722a3daafe3b4186f6b6457e060405160405180910390a35050565b600081519050610172816101e5565b92915050565b60006020828403121561018a57600080fd5b600061019884828501610163565b91505092915050565b60006101ac826101c5565b9050919050565b60006101be826101a1565b9050919050565b600073ffffffffffffffffffffffffffffffffffffffff82169050919050565b6101ee816101b3565b81146101f957600080fd5b50565b610c0e806200020c6000396000f3fe608060405234801561001057600080fd5b50600436106100575760003560e01c80630121b93f1461005c57806317342c4b14610078578063715018a6146100945780638da5cb5b1461009e578063f2fde38b146100bc575b600080fd5b610076600480360381019061007191906107bb565b6100d8565b005b610092600480360381019061008d9190610767565b6102a6565b005b61009c61037f565b005b6100a6610407565b6040516100b39190610885565b60405180910390f35b6100d660048036038101906100d1919061073e565b610430565b005b600360003373ffffffffffffffffffffffffffffffffffffffff1673ffffffffffffffffffffffffffffffffffffffff16815260200190815260200160002060009054906101000a900460ff1615610165576040517f08c379a000000000000000000000000000000000000000000000000000000000815260040161015c906108e0565b60405180910390fd5b6000600460009054906101000a900473ffffffffffffffffffffffffffffffffffffffff1673ffffffffffffffffffffffffffffffffffffffff166370a08231336040518263ffffffff1660e01b81526004016101c29190610885565b60206040518083038186803b1580156101da57600080fd5b505afa1580156101ee573d6000803e3d6000fd5b505050506040513d601f19601f8201168201806040525081019061021291906107e4565b90508060026000848152602001908152602001600020546102339190610967565b60026000848152602001908152602001600020819055506001600360003373ffffffffffffffffffffffffffffffffffffffff1673ffffffffffffffffffffffffffffffffffffffff16815260200190815260200160002060006101000a81548160ff0219169083151502179055505050565b6102ae610528565b73ffffffffffffffffffffffffffffffffffffffff166102cc610407565b73ffffffffffffffffffffffffffffffffffffffff1614610322576040517f08c379a0000000000000000000000000000000000000000000000000000000008152600401610319906108c0565b60405180910390fd5b816001828154811061035d577f4e487b7100000000000000000000000000000000000000000000000000000000600052603260045260246000fd5b90600052602060002001908051906020019061037a9291906105f4565b505050565b610387610528565b73ffffffffffffffffffffffffffffffffffffffff166103a5610407565b73ffffffffffffffffffffffffffffffffffffffff16146103fb576040517f08c379a00000000000000000000000000000000000000000000000000000000081526004016103f2906108c0565b60405180910390fd5b6104056000610530565b565b60008060009054906101000a900473ffffffffffffffffffffffffffffffffffffffff16905090565b610438610528565b73ffffffffffffffffffffffffffffffffffffffff16610456610407565b73ffffffffffffffffffffffffffffffffffffffff16146104ac576040517f08c379a00000000000000000000000000000000000000000000000000000000081526004016104a3906108c0565b60405180910390fd5b600073ffffffffffffffffffffffffffffffffffffffff168173ffffffffffffffffffffffffffffffffffffffff16141561051c576040517f08c379a0000000000000000000000000000000000000000000000000000000008152600401610513906108a0565b60405180910390fd5b61052581610530565b50565b600033905090565b60008060009054906101000a900473ffffffffffffffffffffffffffffffffffffffff169050816000806101000a81548173ffffffffffffffffffffffffffffffffffffffff021916908373ffffffffffffffffffffffffffffffffffffffff1602179055508173ffffffffffffffffffffffffffffffffffffffff168173ffffffffffffffffffffffffffffffffffffffff167f8be0079c531659141344cd1fd0a4f28419497f9722a3daafe3b4186f6b6457e060405160405180910390a35050565b82805461060090610a08565b90600052602060002090601f0160209004810192826106225760008555610669565b82601f1061063b57805160ff1916838001178555610669565b82800160010185558215610669579182015b8281111561066857825182559160200191906001019061064d565b5b509050610676919061067a565b5090565b5b8082111561069357600081600090555060010161067b565b5090565b60006106aa6106a584610925565b610900565b9050828152602081018484840111156106c257600080fd5b6106cd8482856109f9565b509392505050565b6000813590506106e481610baa565b92915050565b600082601f8301126106fb57600080fd5b813561070b848260208601610697565b91505092915050565b60008135905061072381610bc1565b92915050565b60008151905061073881610bc1565b92915050565b60006020828403121561075057600080fd5b600061075e848285016106d5565b91505092915050565b6000806040838503121561077a57600080fd5b600083013567ffffffffffffffff81111561079457600080fd5b6107a0858286016106ea565b92505060206107b185828601610714565b9150509250929050565b6000602082840312156107cd57600080fd5b60006107db84828501610714565b91505092915050565b6000602082840312156107f657600080fd5b600061080484828501610729565b91505092915050565b610816816109bd565b82525050565b6000610829602683610956565b915061083482610b09565b604082019050919050565b600061084c602083610956565b915061085782610b58565b602082019050919050565b600061086f600c83610956565b915061087a82610b81565b602082019050919050565b600060208201905061089a600083018461080d565b92915050565b600060208201905081810360008301526108b98161081c565b9050919050565b600060208201905081810360008301526108d98161083f565b9050919050565b600060208201905081810360008301526108f981610862565b9050919050565b600061090a61091b565b90506109168282610a3a565b919050565b6000604051905090565b600067ffffffffffffffff8211156109405761093f610ac9565b5b61094982610af8565b9050602081019050919050565b600082825260208201905092915050565b6000610972826109ef565b915061097d836109ef565b9250827fffffffffffffffffffffffffffffffffffffffffffffffffffffffffffffffff038211156109b2576109b1610a6b565b5b828201905092915050565b60006109c8826109cf565b9050919050565b600073ffffffffffffffffffffffffffffffffffffffff82169050919050565b6000819050919050565b82818337600083830152505050565b60006002820490506001821680610a2057607f821691505b60208210811415610a3457610a33610a9a565b5b50919050565b610a4382610af8565b810181811067ffffffffffffffff82111715610a6257610a61610ac9565b5b80604052505050565b7f4e487b7100000000000000000000000000000000000000000000000000000000600052601160045260246000fd5b7f4e487b7100000000000000000000000000000000000000000000000000000000600052602260045260246000fd5b7f4e487b7100000000000000000000000000000000000000000000000000000000600052604160045260246000fd5b6000601f19601f8301169050919050565b7f4f776e61626c653a206e6577206f776e657220697320746865207a65726f206160008201527f6464726573730000000000000000000000000000000000000000000000000000602082015250565b7f4f776e61626c653a2063616c6c6572206973206e6f7420746865206f776e6572600082015250565b7f616c726561647920766f74650000000000000000000000000000000000000000600082015250565b610bb3816109bd565b8114610bbe57600080fd5b50565b610bca816109ef565b8114610bd557600080fd5b5056fea264697066735822122031a1a82850db21788f0a4b51e8ca304ee796f065d6cb3210ea62e6bed1393ef964736f6c63430008030033",
  "immutableReferences": {},
  "source": "// SPDX-License-Identifier: MIT\npragma solidity ^0.8.0;\n\nimport \"./Eddi.sol\";\nimport \"@openzeppelin/contracts/access/Ownable.sol\";\nimport \"@openzeppelin/contracts/token/ERC20/IERC20.sol\";\n\n\ncontract Voting is Ownable{\n\nstring []propuestas;\n//index de la propuesta=> numero de votos\nmapping(uint256=>uint256) counting;\n\nmapping(address=>bool) alreadyVote;\n\nEddi crypto;\nconstructor(Eddi contrato_eddi){\n    crypto=contrato_eddi;\n\n}\n\nfunction addPropousal(string memory _propuesta,uint index)public onlyOwner{\n    propuestas[index]=_propuesta;\n}\n \nfunction vote(uint256 _index)public{\n    require(!alreadyVote[msg.sender],'already vote');\n    uint256 userBalance=crypto.balanceOf(msg.sender);\n    counting[_index]=counting[_index]+userBalance;\n    alreadyVote[msg.sender]=true;\n}\n\n  \n\n    \n\n}",
  "sourcePath": "/Users/aarontolentino/Documents/AcademiaCrypto/Deccert/contracts/Voting.sol",
  "compiler": {
    "name": "solc",
    "version": "0.8.3+commit.8d00100c.Emscripten.clang"
  },
  "schemaVersion": "3.4.1",
  "updatedAt": "2022-06-08T02:29:24.497Z",
  "devdoc": {
    "kind": "dev",
    "methods": {
      "owner()": {
        "details": "Returns the address of the current owner."
      },
      "renounceOwnership()": {
        "details": "Leaves the contract without owner. It will not be possible to call `onlyOwner` functions anymore. Can only be called by the current owner. NOTE: Renouncing ownership will leave the contract without an owner, thereby removing any functionality that is only available to the owner."
      },
      "transferOwnership(address)": {
        "details": "Transfers ownership of the contract to a new account (`newOwner`). Can only be called by the current owner."
      }
    },
    "version": 1
  },
  "userdoc": {
    "kind": "user",
    "methods": {},
    "version": 1
  }
}